{
  "address": "0x4A863186e78589f80f4FF786323eC90d8518D354",
  "abi": [
    {
      "inputs": [
        {
          "internalType": "string",
          "name": "_name",
          "type": "string"
        },
        {
          "internalType": "string",
          "name": "_symbol",
          "type": "string"
        },
        {
          "internalType": "address",
          "name": "defaultAdmin",
          "type": "address"
        },
        {
          "internalType": "address",
          "name": "nftContract",
          "type": "address"
        }
      ],
      "stateMutability": "nonpayable",
      "type": "constructor"
    },
    {
      "inputs": [],
      "name": "AccessControlBadConfirmation",
      "type": "error"
    },
    {
      "inputs": [
        {
          "internalType": "address",
          "name": "account",
          "type": "address"
        },
        {
          "internalType": "bytes32",
          "name": "neededRole",
          "type": "bytes32"
        }
      ],
      "name": "AccessControlUnauthorizedAccount",
      "type": "error"
    },
    {
      "inputs": [],
      "name": "CheckpointUnorderedInsertion",
      "type": "error"
    },
    {
      "inputs": [],
      "name": "ECDSAInvalidSignature",
      "type": "error"
    },
    {
      "inputs": [
        {
          "internalType": "uint256",
          "name": "length",
          "type": "uint256"
        }
      ],
      "name": "ECDSAInvalidSignatureLength",
      "type": "error"
    },
    {
      "inputs": [
        {
          "internalType": "bytes32",
          "name": "s",
          "type": "bytes32"
        }
      ],
      "name": "ECDSAInvalidSignatureS",
      "type": "error"
    },
    {
      "inputs": [
        {
          "internalType": "uint256",
          "name": "increasedSupply",
          "type": "uint256"
        },
        {
          "internalType": "uint256",
          "name": "cap",
          "type": "uint256"
        }
      ],
      "name": "ERC20ExceededSafeSupply",
      "type": "error"
    },
    {
      "inputs": [
        {
          "internalType": "address",
          "name": "spender",
          "type": "address"
        },
        {
          "internalType": "uint256",
          "name": "allowance",
          "type": "uint256"
        },
        {
          "internalType": "uint256",
          "name": "needed",
          "type": "uint256"
        }
      ],
      "name": "ERC20InsufficientAllowance",
      "type": "error"
    },
    {
      "inputs": [
        {
          "internalType": "address",
          "name": "sender",
          "type": "address"
        },
        {
          "internalType": "uint256",
          "name": "balance",
          "type": "uint256"
        },
        {
          "internalType": "uint256",
          "name": "needed",
          "type": "uint256"
        }
      ],
      "name": "ERC20InsufficientBalance",
      "type": "error"
    },
    {
      "inputs": [
        {
          "internalType": "address",
          "name": "approver",
          "type": "address"
        }
      ],
      "name": "ERC20InvalidApprover",
      "type": "error"
    },
    {
      "inputs": [
        {
          "internalType": "address",
          "name": "receiver",
          "type": "address"
        }
      ],
      "name": "ERC20InvalidReceiver",
      "type": "error"
    },
    {
      "inputs": [
        {
          "internalType": "address",
          "name": "sender",
          "type": "address"
        }
      ],
      "name": "ERC20InvalidSender",
      "type": "error"
    },
    {
      "inputs": [
        {
          "internalType": "address",
          "name": "spender",
          "type": "address"
        }
      ],
      "name": "ERC20InvalidSpender",
      "type": "error"
    },
    {
      "inputs": [
        {
          "internalType": "uint256",
          "name": "deadline",
          "type": "uint256"
        }
      ],
      "name": "ERC2612ExpiredSignature",
      "type": "error"
    },
    {
      "inputs": [
        {
          "internalType": "address",
          "name": "signer",
          "type": "address"
        },
        {
          "internalType": "address",
          "name": "owner",
          "type": "address"
        }
      ],
      "name": "ERC2612InvalidSigner",
      "type": "error"
    },
    {
      "inputs": [
        {
          "internalType": "uint256",
          "name": "timepoint",
          "type": "uint256"
        },
        {
          "internalType": "uint48",
          "name": "clock",
          "type": "uint48"
        }
      ],
      "name": "ERC5805FutureLookup",
      "type": "error"
    },
    {
      "inputs": [],
      "name": "ERC6372InconsistentClock",
      "type": "error"
    },
    {
      "inputs": [
        {
          "internalType": "address",
          "name": "account",
          "type": "address"
        },
        {
          "internalType": "uint256",
          "name": "currentNonce",
          "type": "uint256"
        }
      ],
      "name": "InvalidAccountNonce",
      "type": "error"
    },
    {
      "inputs": [],
      "name": "InvalidShortString",
      "type": "error"
    },
    {
      "inputs": [
        {
          "internalType": "uint8",
          "name": "bits",
          "type": "uint8"
        },
        {
          "internalType": "uint256",
          "name": "value",
          "type": "uint256"
        }
      ],
      "name": "SafeCastOverflowedUintDowncast",
      "type": "error"
    },
    {
      "inputs": [
        {
          "internalType": "string",
          "name": "str",
          "type": "string"
        }
      ],
      "name": "StringTooLong",
      "type": "error"
    },
    {
      "inputs": [
        {
          "internalType": "uint256",
          "name": "expiry",
          "type": "uint256"
        }
      ],
      "name": "VotesExpiredSignature",
      "type": "error"
    },
    {
      "anonymous": false,
      "inputs": [
        {
          "indexed": true,
          "internalType": "address",
          "name": "account",
          "type": "address"
        },
        {
          "indexed": false,
          "internalType": "uint256",
          "name": "amount",
          "type": "uint256"
        }
      ],
      "name": "AirdropClaimed",
      "type": "event"
    },
    {
      "anonymous": false,
      "inputs": [
        {
          "indexed": true,
          "internalType": "address",
          "name": "owner",
          "type": "address"
        },
        {
          "indexed": true,
          "internalType": "address",
          "name": "spender",
          "type": "address"
        },
        {
          "indexed": false,
          "internalType": "uint256",
          "name": "value",
          "type": "uint256"
        }
      ],
      "name": "Approval",
      "type": "event"
    },
    {
      "anonymous": false,
      "inputs": [
        {
          "indexed": true,
          "internalType": "address",
          "name": "user",
          "type": "address"
        },
        {
          "indexed": false,
          "internalType": "uint256",
          "name": "burnCount",
          "type": "uint256"
        },
        {
          "indexed": false,
          "internalType": "uint256",
          "name": "rewardAmount",
          "type": "uint256"
        }
      ],
      "name": "BurnRewardsClaimed",
      "type": "event"
    },
    {
      "anonymous": false,
      "inputs": [
        {
          "indexed": false,
          "internalType": "string",
          "name": "message",
          "type": "string"
        },
        {
          "indexed": false,
          "internalType": "uint256",
          "name": "value1",
          "type": "uint256"
        },
        {
          "indexed": false,
          "internalType": "uint256",
          "name": "value2",
          "type": "uint256"
        }
      ],
      "name": "Debug",
      "type": "event"
    },
    {
      "anonymous": false,
      "inputs": [
        {
          "indexed": true,
          "internalType": "address",
          "name": "delegator",
          "type": "address"
        },
        {
          "indexed": true,
          "internalType": "address",
          "name": "fromDelegate",
          "type": "address"
        },
        {
          "indexed": true,
          "internalType": "address",
          "name": "toDelegate",
          "type": "address"
        }
      ],
      "name": "DelegateChanged",
      "type": "event"
    },
    {
      "anonymous": false,
      "inputs": [
        {
          "indexed": true,
          "internalType": "address",
          "name": "delegate",
          "type": "address"
        },
        {
          "indexed": false,
          "internalType": "uint256",
          "name": "previousVotes",
          "type": "uint256"
        },
        {
          "indexed": false,
          "internalType": "uint256",
          "name": "newVotes",
          "type": "uint256"
        }
      ],
      "name": "DelegateVotesChanged",
      "type": "event"
    },
    {
      "anonymous": false,
      "inputs": [],
      "name": "EIP712DomainChanged",
      "type": "event"
    },
    {
      "anonymous": false,
      "inputs": [
        {
          "indexed": false,
          "internalType": "bytes32",
          "name": "merkleRoot",
          "type": "bytes32"
        }
      ],
      "name": "MerkleRootSet",
      "type": "event"
    },
    {
      "anonymous": false,
      "inputs": [
        {
          "indexed": true,
          "internalType": "bytes32",
          "name": "role",
          "type": "bytes32"
        },
        {
          "indexed": true,
          "internalType": "bytes32",
          "name": "previousAdminRole",
          "type": "bytes32"
        },
        {
          "indexed": true,
          "internalType": "bytes32",
          "name": "newAdminRole",
          "type": "bytes32"
        }
      ],
      "name": "RoleAdminChanged",
      "type": "event"
    },
    {
      "anonymous": false,
      "inputs": [
        {
          "indexed": true,
          "internalType": "bytes32",
          "name": "role",
          "type": "bytes32"
        },
        {
          "indexed": true,
          "internalType": "address",
          "name": "account",
          "type": "address"
        },
        {
          "indexed": true,
          "internalType": "address",
          "name": "sender",
          "type": "address"
        }
      ],
      "name": "RoleGranted",
      "type": "event"
    },
    {
      "anonymous": false,
      "inputs": [
        {
          "indexed": true,
          "internalType": "bytes32",
          "name": "role",
          "type": "bytes32"
        },
        {
          "indexed": true,
          "internalType": "address",
          "name": "account",
          "type": "address"
        },
        {
          "indexed": true,
          "internalType": "address",
          "name": "sender",
          "type": "address"
        }
      ],
      "name": "RoleRevoked",
      "type": "event"
    },
    {
      "anonymous": false,
      "inputs": [
        {
          "indexed": true,
          "internalType": "address",
          "name": "user",
          "type": "address"
        },
        {
          "indexed": false,
          "internalType": "uint256[]",
          "name": "tokenIds",
          "type": "uint256[]"
        }
      ],
      "name": "TokensPlacedOnAltar",
      "type": "event"
    },
    {
      "anonymous": false,
      "inputs": [
        {
          "indexed": true,
          "internalType": "address",
          "name": "from",
          "type": "address"
        },
        {
          "indexed": true,
          "internalType": "address",
          "name": "to",
          "type": "address"
        },
        {
          "indexed": false,
          "internalType": "uint256",
          "name": "value",
          "type": "uint256"
        }
      ],
      "name": "Transfer",
      "type": "event"
    },
    {
      "inputs": [],
      "name": "CLOCK_MODE",
      "outputs": [
        {
          "internalType": "string",
          "name": "",
          "type": "string"
        }
      ],
      "stateMutability": "view",
      "type": "function"
    },
    {
      "inputs": [],
      "name": "DEFAULT_ADMIN_ROLE",
      "outputs": [
        {
          "internalType": "bytes32",
          "name": "",
          "type": "bytes32"
        }
      ],
      "stateMutability": "view",
      "type": "function"
    },
    {
      "inputs": [],
      "name": "DOMAIN_SEPARATOR",
      "outputs": [
        {
          "internalType": "bytes32",
          "name": "",
          "type": "bytes32"
        }
      ],
      "stateMutability": "view",
      "type": "function"
    },
    {
      "inputs": [],
      "name": "MAX_ALTAR_OFFERINGS",
      "outputs": [
        {
          "internalType": "uint256",
          "name": "",
          "type": "uint256"
        }
      ],
      "stateMutability": "view",
      "type": "function"
    },
    {
      "inputs": [],
      "name": "NFT_CONTRACT",
      "outputs": [
        {
          "internalType": "contract ERC721Burnable",
          "name": "",
          "type": "address"
        }
      ],
      "stateMutability": "view",
      "type": "function"
    },
    {
      "inputs": [],
      "name": "REWARD_PER_BURN",
      "outputs": [
        {
          "internalType": "uint256",
          "name": "",
          "type": "uint256"
        }
      ],
      "stateMutability": "view",
      "type": "function"
    },
    {
      "inputs": [],
      "name": "TOTAL_SUPPLY",
      "outputs": [
        {
          "internalType": "uint256",
          "name": "",
          "type": "uint256"
        }
      ],
      "stateMutability": "view",
      "type": "function"
    },
    {
      "inputs": [
        {
          "internalType": "address",
          "name": "owner",
          "type": "address"
        },
        {
          "internalType": "address",
          "name": "spender",
          "type": "address"
        }
      ],
      "name": "allowance",
      "outputs": [
        {
          "internalType": "uint256",
          "name": "",
          "type": "uint256"
        }
      ],
      "stateMutability": "view",
      "type": "function"
    },
    {
      "inputs": [
        {
          "internalType": "address",
          "name": "",
          "type": "address"
        },
        {
          "internalType": "uint256",
          "name": "",
          "type": "uint256"
        }
      ],
      "name": "altarOfferings",
      "outputs": [
        {
          "internalType": "uint256",
          "name": "",
          "type": "uint256"
        }
      ],
      "stateMutability": "view",
      "type": "function"
    },
    {
      "inputs": [
        {
          "internalType": "address",
          "name": "spender",
          "type": "address"
        },
        {
          "internalType": "uint256",
          "name": "value",
          "type": "uint256"
        }
      ],
      "name": "approve",
      "outputs": [
        {
          "internalType": "bool",
          "name": "",
          "type": "bool"
        }
      ],
      "stateMutability": "nonpayable",
      "type": "function"
    },
    {
      "inputs": [
        {
          "internalType": "address",
          "name": "account",
          "type": "address"
        }
      ],
      "name": "balanceOf",
      "outputs": [
        {
          "internalType": "uint256",
          "name": "",
          "type": "uint256"
        }
      ],
      "stateMutability": "view",
      "type": "function"
    },
    {
      "inputs": [
        {
          "internalType": "uint256",
          "name": "value",
          "type": "uint256"
        }
      ],
      "name": "burn",
      "outputs": [],
      "stateMutability": "nonpayable",
      "type": "function"
    },
    {
      "inputs": [
        {
          "internalType": "address",
          "name": "account",
          "type": "address"
        },
        {
          "internalType": "uint256",
          "name": "value",
          "type": "uint256"
        }
      ],
      "name": "burnFrom",
      "outputs": [],
      "stateMutability": "nonpayable",
      "type": "function"
    },
    {
      "inputs": [],
      "name": "calculateBurnRewards",
      "outputs": [
        {
          "internalType": "uint256",
          "name": "",
          "type": "uint256"
        }
      ],
      "stateMutability": "view",
      "type": "function"
    },
    {
      "inputs": [
        {
          "internalType": "address",
          "name": "account",
          "type": "address"
        },
        {
          "internalType": "uint32",
          "name": "pos",
          "type": "uint32"
        }
      ],
      "name": "checkpoints",
      "outputs": [
        {
          "components": [
            {
              "internalType": "uint48",
              "name": "_key",
              "type": "uint48"
            },
            {
              "internalType": "uint208",
              "name": "_value",
              "type": "uint208"
            }
          ],
          "internalType": "struct Checkpoints.Checkpoint208",
          "name": "",
          "type": "tuple"
        }
      ],
      "stateMutability": "view",
      "type": "function"
    },
    {
      "inputs": [
        {
          "internalType": "uint256",
          "name": "amount",
          "type": "uint256"
        },
        {
          "internalType": "bytes32[]",
          "name": "merkleProof",
          "type": "bytes32[]"
        }
      ],
      "name": "claimAirdrop",
      "outputs": [],
      "stateMutability": "nonpayable",
      "type": "function"
    },
    {
      "inputs": [],
      "name": "claimYAYForBurnedNFTs",
      "outputs": [],
      "stateMutability": "nonpayable",
      "type": "function"
    },
    {
      "inputs": [],
      "name": "clock",
      "outputs": [
        {
          "internalType": "uint48",
          "name": "",
          "type": "uint48"
        }
      ],
      "stateMutability": "view",
      "type": "function"
    },
    {
      "inputs": [],
      "name": "decimals",
      "outputs": [
        {
          "internalType": "uint8",
          "name": "",
          "type": "uint8"
        }
      ],
      "stateMutability": "view",
      "type": "function"
    },
    {
      "inputs": [
        {
          "internalType": "address",
          "name": "delegatee",
          "type": "address"
        }
      ],
      "name": "delegate",
      "outputs": [],
      "stateMutability": "nonpayable",
      "type": "function"
    },
    {
      "inputs": [
        {
          "internalType": "address",
          "name": "delegatee",
          "type": "address"
        },
        {
          "internalType": "uint256",
          "name": "nonce",
          "type": "uint256"
        },
        {
          "internalType": "uint256",
          "name": "expiry",
          "type": "uint256"
        },
        {
          "internalType": "uint8",
          "name": "v",
          "type": "uint8"
        },
        {
          "internalType": "bytes32",
          "name": "r",
          "type": "bytes32"
        },
        {
          "internalType": "bytes32",
          "name": "s",
          "type": "bytes32"
        }
      ],
      "name": "delegateBySig",
      "outputs": [],
      "stateMutability": "nonpayable",
      "type": "function"
    },
    {
      "inputs": [
        {
          "internalType": "address",
          "name": "account",
          "type": "address"
        }
      ],
      "name": "delegates",
      "outputs": [
        {
          "internalType": "address",
          "name": "",
          "type": "address"
        }
      ],
      "stateMutability": "view",
      "type": "function"
    },
    {
      "inputs": [],
      "name": "eip712Domain",
      "outputs": [
        {
          "internalType": "bytes1",
          "name": "fields",
          "type": "bytes1"
        },
        {
          "internalType": "string",
          "name": "name",
          "type": "string"
        },
        {
          "internalType": "string",
          "name": "version",
          "type": "string"
        },
        {
          "internalType": "uint256",
          "name": "chainId",
          "type": "uint256"
        },
        {
          "internalType": "address",
          "name": "verifyingContract",
          "type": "address"
        },
        {
          "internalType": "bytes32",
          "name": "salt",
          "type": "bytes32"
        },
        {
          "internalType": "uint256[]",
          "name": "extensions",
          "type": "uint256[]"
        }
      ],
      "stateMutability": "view",
      "type": "function"
    },
    {
      "inputs": [
        {
          "internalType": "uint256",
          "name": "timepoint",
          "type": "uint256"
        }
      ],
      "name": "getPastTotalSupply",
      "outputs": [
        {
          "internalType": "uint256",
          "name": "",
          "type": "uint256"
        }
      ],
      "stateMutability": "view",
      "type": "function"
    },
    {
      "inputs": [
        {
          "internalType": "address",
          "name": "account",
          "type": "address"
        },
        {
          "internalType": "uint256",
          "name": "timepoint",
          "type": "uint256"
        }
      ],
      "name": "getPastVotes",
      "outputs": [
        {
          "internalType": "uint256",
          "name": "",
          "type": "uint256"
        }
      ],
      "stateMutability": "view",
      "type": "function"
    },
    {
      "inputs": [
        {
          "internalType": "bytes32",
          "name": "role",
          "type": "bytes32"
        }
      ],
      "name": "getRoleAdmin",
      "outputs": [
        {
          "internalType": "bytes32",
          "name": "",
          "type": "bytes32"
        }
      ],
      "stateMutability": "view",
      "type": "function"
    },
    {
      "inputs": [
        {
          "internalType": "address",
          "name": "account",
          "type": "address"
        }
      ],
      "name": "getVotes",
      "outputs": [
        {
          "internalType": "uint256",
          "name": "",
          "type": "uint256"
        }
      ],
      "stateMutability": "view",
      "type": "function"
    },
    {
      "inputs": [
        {
          "internalType": "bytes32",
          "name": "role",
          "type": "bytes32"
        },
        {
          "internalType": "address",
          "name": "account",
          "type": "address"
        }
      ],
      "name": "grantRole",
      "outputs": [],
      "stateMutability": "nonpayable",
      "type": "function"
    },
    {
      "inputs": [
        {
          "internalType": "address",
          "name": "",
          "type": "address"
        }
      ],
      "name": "hasClaimedAirdrop",
      "outputs": [
        {
          "internalType": "bool",
          "name": "",
          "type": "bool"
        }
      ],
      "stateMutability": "view",
      "type": "function"
    },
    {
      "inputs": [
        {
          "internalType": "bytes32",
          "name": "role",
          "type": "bytes32"
        },
        {
          "internalType": "address",
          "name": "account",
          "type": "address"
        }
      ],
      "name": "hasRole",
      "outputs": [
        {
          "internalType": "bool",
          "name": "",
          "type": "bool"
        }
      ],
      "stateMutability": "view",
      "type": "function"
    },
    {
      "inputs": [
        {
          "internalType": "address",
          "name": "daoAddress",
          "type": "address"
        }
      ],
      "name": "initializeDAO",
      "outputs": [],
      "stateMutability": "nonpayable",
      "type": "function"
    },
    {
      "inputs": [
        {
          "internalType": "address",
          "name": "yayFarmAddress",
          "type": "address"
        }
      ],
      "name": "initializeYAYFarm",
      "outputs": [],
      "stateMutability": "nonpayable",
      "type": "function"
    },
    {
      "inputs": [],
      "name": "merkleRoot",
      "outputs": [
        {
          "internalType": "bytes32",
          "name": "",
          "type": "bytes32"
        }
      ],
      "stateMutability": "view",
      "type": "function"
    },
    {
      "inputs": [],
      "name": "name",
      "outputs": [
        {
          "internalType": "string",
          "name": "",
          "type": "string"
        }
      ],
      "stateMutability": "view",
      "type": "function"
    },
    {
      "inputs": [
        {
          "internalType": "address",
          "name": "owner",
          "type": "address"
        }
      ],
      "name": "nonces",
      "outputs": [
        {
          "internalType": "uint256",
          "name": "",
          "type": "uint256"
        }
      ],
      "stateMutability": "view",
      "type": "function"
    },
    {
      "inputs": [
        {
          "internalType": "address",
          "name": "account",
          "type": "address"
        }
      ],
      "name": "numCheckpoints",
      "outputs": [
        {
          "internalType": "uint32",
          "name": "",
          "type": "uint32"
        }
      ],
      "stateMutability": "view",
      "type": "function"
    },
    {
      "inputs": [
        {
          "internalType": "address",
          "name": "owner",
          "type": "address"
        },
        {
          "internalType": "address",
          "name": "spender",
          "type": "address"
        },
        {
          "internalType": "uint256",
          "name": "value",
          "type": "uint256"
        },
        {
          "internalType": "uint256",
          "name": "deadline",
          "type": "uint256"
        },
        {
          "internalType": "uint8",
          "name": "v",
          "type": "uint8"
        },
        {
          "internalType": "bytes32",
          "name": "r",
          "type": "bytes32"
        },
        {
          "internalType": "bytes32",
          "name": "s",
          "type": "bytes32"
        }
      ],
      "name": "permit",
      "outputs": [],
      "stateMutability": "nonpayable",
      "type": "function"
    },
    {
      "inputs": [
        {
          "internalType": "uint256[]",
          "name": "tokenIds",
          "type": "uint256[]"
        }
      ],
      "name": "placeOnAltar",
      "outputs": [],
      "stateMutability": "nonpayable",
      "type": "function"
    },
    {
      "inputs": [
        {
          "internalType": "bytes32",
          "name": "role",
          "type": "bytes32"
        },
        {
          "internalType": "address",
          "name": "callerConfirmation",
          "type": "address"
        }
      ],
      "name": "renounceRole",
      "outputs": [],
      "stateMutability": "nonpayable",
      "type": "function"
    },
    {
      "inputs": [
        {
          "internalType": "bytes32",
          "name": "role",
          "type": "bytes32"
        },
        {
          "internalType": "address",
          "name": "account",
          "type": "address"
        }
      ],
      "name": "revokeRole",
      "outputs": [],
      "stateMutability": "nonpayable",
      "type": "function"
    },
    {
      "inputs": [
        {
          "internalType": "bytes32",
          "name": "_merkleRoot",
          "type": "bytes32"
        }
      ],
      "name": "setMerkleRoot",
      "outputs": [],
      "stateMutability": "nonpayable",
      "type": "function"
    },
    {
      "inputs": [
        {
          "internalType": "bytes4",
          "name": "interfaceId",
          "type": "bytes4"
        }
      ],
      "name": "supportsInterface",
      "outputs": [
        {
          "internalType": "bool",
          "name": "",
          "type": "bool"
        }
      ],
      "stateMutability": "view",
      "type": "function"
    },
    {
      "inputs": [],
      "name": "symbol",
      "outputs": [
        {
          "internalType": "string",
          "name": "",
          "type": "string"
        }
      ],
      "stateMutability": "view",
      "type": "function"
    },
    {
      "inputs": [
        {
          "internalType": "uint256",
          "name": "",
          "type": "uint256"
        }
      ],
      "name": "tokenIdToAltarAddress",
      "outputs": [
        {
          "internalType": "address",
          "name": "",
          "type": "address"
        }
      ],
      "stateMutability": "view",
      "type": "function"
    },
    {
      "inputs": [],
      "name": "totalSupply",
      "outputs": [
        {
          "internalType": "uint256",
          "name": "",
          "type": "uint256"
        }
      ],
      "stateMutability": "view",
      "type": "function"
    },
    {
      "inputs": [
        {
          "internalType": "address",
          "name": "to",
          "type": "address"
        },
        {
          "internalType": "uint256",
          "name": "value",
          "type": "uint256"
        }
      ],
      "name": "transfer",
      "outputs": [
        {
          "internalType": "bool",
          "name": "",
          "type": "bool"
        }
      ],
      "stateMutability": "nonpayable",
      "type": "function"
    },
    {
      "inputs": [
        {
          "internalType": "address",
          "name": "timelock",
          "type": "address"
        }
      ],
      "name": "transferAdminControl",
      "outputs": [],
      "stateMutability": "nonpayable",
      "type": "function"
    },
    {
      "inputs": [
        {
          "internalType": "address",
          "name": "from",
          "type": "address"
        },
        {
          "internalType": "address",
          "name": "to",
          "type": "address"
        },
        {
          "internalType": "uint256",
          "name": "value",
          "type": "uint256"
        }
      ],
      "name": "transferFrom",
      "outputs": [
        {
          "internalType": "bool",
          "name": "",
          "type": "bool"
        }
      ],
      "stateMutability": "nonpayable",
      "type": "function"
    }
  ],
  "transactionHash": "0x3cd03ab38e87432ba9bc2bbd339589be8a6517e2d767a645ee41c745c087dbb6",
  "args": [
    "YAYPES",
    "YAY",
    "0x5304ebB378186b081B99dbb8B6D17d9005eA0448",
    "0x95A82b5Ce1163Df64FA8d296b3efe6be0B471681"
  ],
  "numDeployments": 10,
  "solcInputHash": "d269ff016aef7d92553226af833e8982",
  "bytecode": "0x61018060405234801561001157600080fd5b50604051617241380380617241833981810160405281019061003391906112dc565b83806040518060400160405280600181526020017f31000000000000000000000000000000000000000000000000000000000000008152508686816003908161007c919061159c565b50806004908161008c919061159c565b5050506100a36006836101a660201b90919060201c565b61012081815250506100bf6007826101a660201b90919060201c565b6101408181525050818051906020012060e08181525050808051906020012061010081815250504660a081815250506100fc6101f660201b60201c565b608081815250503073ffffffffffffffffffffffffffffffffffffffff1660c08173ffffffffffffffffffffffffffffffffffffffff168152505050505061014d6000801b8361025160201b60201c565b508073ffffffffffffffffffffffffffffffffffffffff166101608173ffffffffffffffffffffffffffffffffffffffff168152505061019d30690878678326eac900000061034f60201b60201c565b50505050611abf565b60006020835110156101c8576101c1836103d760201b60201c565b90506101f0565b826101d88361043f60201b60201c565b60000190816101e7919061159c565b5060ff60001b90505b92915050565b60007f8b73c3c69bb8fe3d512ecc4cf759cc79239f7b179b0ffacaa9a75d522b39400f60e0516101005146306040516020016102369594939291906116a5565b60405160208183030381529060405280519060200120905090565b6000610263838361044960201b60201c565b6103445760016005600085815260200190815260200160002060000160008473ffffffffffffffffffffffffffffffffffffffff1673ffffffffffffffffffffffffffffffffffffffff16815260200190815260200160002060006101000a81548160ff0219169083151502179055506102e16104b460201b60201c565b73ffffffffffffffffffffffffffffffffffffffff168273ffffffffffffffffffffffffffffffffffffffff16847f2f8788117e7eff1d82e926ec794901d17c78024a50270940304540a733656f0d60405160405180910390a460019050610349565b600090505b92915050565b600073ffffffffffffffffffffffffffffffffffffffff168273ffffffffffffffffffffffffffffffffffffffff16036103c15760006040517fec442f050000000000000000000000000000000000000000000000000000000081526004016103b891906116f8565b60405180910390fd5b6103d3600083836104bc60201b60201c565b5050565b600080829050601f8151111561042457826040517f305a27a900000000000000000000000000000000000000000000000000000000815260040161041b919061175d565b60405180910390fd5b805181610430906117af565b60001c1760001b915050919050565b6000819050919050565b60006005600084815260200190815260200160002060000160008373ffffffffffffffffffffffffffffffffffffffff1673ffffffffffffffffffffffffffffffffffffffff16815260200190815260200160002060009054906101000a900460ff16905092915050565b600033905090565b6104cd8383836104d260201b60201c565b505050565b6104e383838361059b60201b60201c565b600073ffffffffffffffffffffffffffffffffffffffff168373ffffffffffffffffffffffffffffffffffffffff16036105855760006105276107c060201b60201c565b905060006105396107ca60201b60201c565b9050808211156105825781816040517f1cb15d26000000000000000000000000000000000000000000000000000000008152600401610579929190611816565b60405180910390fd5b50505b6105968383836107ee60201b60201c565b505050565b600073ffffffffffffffffffffffffffffffffffffffff168373ffffffffffffffffffffffffffffffffffffffff16036105ed5780600260008282546105e1919061186e565b925050819055506106c0565b60008060008573ffffffffffffffffffffffffffffffffffffffff1673ffffffffffffffffffffffffffffffffffffffff16815260200190815260200160002054905081811015610679578381836040517fe450d38c000000000000000000000000000000000000000000000000000000008152600401610670939291906118a2565b60405180910390fd5b8181036000808673ffffffffffffffffffffffffffffffffffffffff1673ffffffffffffffffffffffffffffffffffffffff16815260200190815260200160002081905550505b600073ffffffffffffffffffffffffffffffffffffffff168273ffffffffffffffffffffffffffffffffffffffff16036107095780600260008282540392505081905550610756565b806000808473ffffffffffffffffffffffffffffffffffffffff1673ffffffffffffffffffffffffffffffffffffffff168152602001908152602001600020600082825401925050819055505b8173ffffffffffffffffffffffffffffffffffffffff168373ffffffffffffffffffffffffffffffffffffffff167fddf252ad1be2c89b69c2b068fc378daa952ba7f163c4a11628f55a4df523b3ef836040516107b391906118d9565b60405180910390a3505050565b6000600254905090565b600079ffffffffffffffffffffffffffffffffffffffffffffffffffff8016905090565b600073ffffffffffffffffffffffffffffffffffffffff168373ffffffffffffffffffffffffffffffffffffffff160361084e5761084b600b6108e060201b611ec317610840846108f660201b60201c565b61096460201b60201c565b50505b600073ffffffffffffffffffffffffffffffffffffffff168273ffffffffffffffffffffffffffffffffffffffff16036108ae576108ab600b6109ad60201b611ed9176108a0846108f660201b60201c565b61096460201b60201c565b50505b6108db6108c0846109c360201b60201c565b6108cf846109c360201b60201c565b83610a2c60201b60201c565b505050565b600081836108ee919061191a565b905092915050565b600079ffffffffffffffffffffffffffffffffffffffffffffffffffff801682111561095c5760d0826040517f6dfcc6500000000000000000000000000000000000000000000000000000000081526004016109539291906119b0565b60405180910390fd5b819050919050565b6000806109a1610978610ccb60201b60201c565b61099161098a88610ce060201b60201c565b868860201c565b87610d4e60201b9092919060201c565b91509150935093915050565b600081836109bb91906119d9565b905092915050565b6000600960008373ffffffffffffffffffffffffffffffffffffffff1673ffffffffffffffffffffffffffffffffffffffff16815260200190815260200160002060009054906101000a900473ffffffffffffffffffffffffffffffffffffffff169050919050565b8173ffffffffffffffffffffffffffffffffffffffff168373ffffffffffffffffffffffffffffffffffffffff1614158015610a685750600081115b15610cc657600073ffffffffffffffffffffffffffffffffffffffff168373ffffffffffffffffffffffffffffffffffffffff1614610b9957600080610b0a600a60008773ffffffffffffffffffffffffffffffffffffffff1673ffffffffffffffffffffffffffffffffffffffff1681526020019081526020016000206109ad60201b611ed917610aff866108f660201b60201c565b61096460201b60201c565b79ffffffffffffffffffffffffffffffffffffffffffffffffffff16915079ffffffffffffffffffffffffffffffffffffffffffffffffffff1691508473ffffffffffffffffffffffffffffffffffffffff167fdec2bacdd2f05b59de34da9b523dff8be42e5e38e818c82fdb0bae774387a7248383604051610b8e929190611816565b60405180910390a250505b600073ffffffffffffffffffffffffffffffffffffffff168273ffffffffffffffffffffffffffffffffffffffff1614610cc557600080610c36600a60008673ffffffffffffffffffffffffffffffffffffffff1673ffffffffffffffffffffffffffffffffffffffff1681526020019081526020016000206108e060201b611ec317610c2b866108f660201b60201c565b61096460201b60201c565b79ffffffffffffffffffffffffffffffffffffffffffffffffffff16915079ffffffffffffffffffffffffffffffffffffffffffffffffffff1691508373ffffffffffffffffffffffffffffffffffffffff167fdec2bacdd2f05b59de34da9b523dff8be42e5e38e818c82fdb0bae774387a7248383604051610cba929190611816565b60405180910390a250505b5b505050565b6000610cdb610d7160201b60201c565b905090565b6000808260000180549050905060008114610d4357610d1483600001600183610d099190611a27565b610d8760201b60201c565b60000160069054906101000a900479ffffffffffffffffffffffffffffffffffffffffffffffffffff16610d46565b60005b915050919050565b600080610d65856000018585610d9c60201b60201c565b91509150935093915050565b6000610d82436110af60201b60201c565b905090565b60008260005281602060002001905092915050565b6000806000858054905090506000811115610fbf576000610dcf87600184610dc49190611a27565b610d8760201b60201c565b905060008160000160009054906101000a900465ffffffffffff16905060008260000160069054906101000a900479ffffffffffffffffffffffffffffffffffffffffffffffffffff1690508765ffffffffffff168265ffffffffffff161115610e65576040517f2520601d00000000000000000000000000000000000000000000000000000000815260040160405180910390fd5b8765ffffffffffff168265ffffffffffff1603610ed057868360000160066101000a81548179ffffffffffffffffffffffffffffffffffffffffffffffffffff021916908379ffffffffffffffffffffffffffffffffffffffffffffffffffff160217905550610fb0565b8860405180604001604052808a65ffffffffffff1681526020018979ffffffffffffffffffffffffffffffffffffffffffffffffffff168152509080600181540180825580915050600190039060005260206000200160009091909190915060008201518160000160006101000a81548165ffffffffffff021916908365ffffffffffff16021790555060208201518160000160066101000a81548179ffffffffffffffffffffffffffffffffffffffffffffffffffff021916908379ffffffffffffffffffffffffffffffffffffffffffffffffffff16021790555050505b808795509550505050506110a7565b8560405180604001604052808765ffffffffffff1681526020018679ffffffffffffffffffffffffffffffffffffffffffffffffffff168152509080600181540180825580915050600190039060005260206000200160009091909190915060008201518160000160006101000a81548165ffffffffffff021916908365ffffffffffff16021790555060208201518160000160066101000a81548179ffffffffffffffffffffffffffffffffffffffffffffffffffff021916908379ffffffffffffffffffffffffffffffffffffffffffffffffffff160217905550505060008492509250505b935093915050565b600065ffffffffffff8016821115611101576030826040517f6dfcc6500000000000000000000000000000000000000000000000000000000081526004016110f8929190611a96565b60405180910390fd5b819050919050565b6000604051905090565b600080fd5b600080fd5b600080fd5b600080fd5b6000601f19601f8301169050919050565b7f4e487b7100000000000000000000000000000000000000000000000000000000600052604160045260246000fd5b61117082611127565b810181811067ffffffffffffffff8211171561118f5761118e611138565b5b80604052505050565b60006111a2611109565b90506111ae8282611167565b919050565b600067ffffffffffffffff8211156111ce576111cd611138565b5b6111d782611127565b9050602081019050919050565b60005b838110156112025780820151818401526020810190506111e7565b60008484015250505050565b600061122161121c846111b3565b611198565b90508281526020810184848401111561123d5761123c611122565b5b6112488482856111e4565b509392505050565b600082601f8301126112655761126461111d565b5b815161127584826020860161120e565b91505092915050565b600073ffffffffffffffffffffffffffffffffffffffff82169050919050565b60006112a98261127e565b9050919050565b6112b98161129e565b81146112c457600080fd5b50565b6000815190506112d6816112b0565b92915050565b600080600080608085870312156112f6576112f5611113565b5b600085015167ffffffffffffffff81111561131457611313611118565b5b61132087828801611250565b945050602085015167ffffffffffffffff81111561134157611340611118565b5b61134d87828801611250565b935050604061135e878288016112c7565b925050606061136f878288016112c7565b91505092959194509250565b600081519050919050565b7f4e487b7100000000000000000000000000000000000000000000000000000000600052602260045260246000fd5b600060028204905060018216806113cd57607f821691505b6020821081036113e0576113df611386565b5b50919050565b60008190508160005260206000209050919050565b60006020601f8301049050919050565b600082821b905092915050565b6000600883026114487fffffffffffffffffffffffffffffffffffffffffffffffffffffffffffffffff8261140b565b611452868361140b565b95508019841693508086168417925050509392505050565b6000819050919050565b6000819050919050565b600061149961149461148f8461146a565b611474565b61146a565b9050919050565b6000819050919050565b6114b38361147e565b6114c76114bf826114a0565b848454611418565b825550505050565b600090565b6114dc6114cf565b6114e78184846114aa565b505050565b5b8181101561150b576115006000826114d4565b6001810190506114ed565b5050565b601f82111561155057611521816113e6565b61152a846113fb565b81016020851015611539578190505b61154d611545856113fb565b8301826114ec565b50505b505050565b600082821c905092915050565b600061157360001984600802611555565b1980831691505092915050565b600061158c8383611562565b9150826002028217905092915050565b6115a58261137b565b67ffffffffffffffff8111156115be576115bd611138565b5b6115c882546113b5565b6115d382828561150f565b600060209050601f83116001811461160657600084156115f4578287015190505b6115fe8582611580565b865550611666565b601f198416611614866113e6565b60005b8281101561163c57848901518255600182019150602085019450602081019050611617565b868310156116595784890151611655601f891682611562565b8355505b6001600288020188555050505b505050505050565b6000819050919050565b6116818161166e565b82525050565b6116908161146a565b82525050565b61169f8161129e565b82525050565b600060a0820190506116ba6000830188611678565b6116c76020830187611678565b6116d46040830186611678565b6116e16060830185611687565b6116ee6080830184611696565b9695505050505050565b600060208201905061170d6000830184611696565b92915050565b600082825260208201905092915050565b600061172f8261137b565b6117398185611713565b93506117498185602086016111e4565b61175281611127565b840191505092915050565b600060208201905081810360008301526117778184611724565b905092915050565b600081519050919050565b6000819050602082019050919050565b60006117a6825161166e565b80915050919050565b60006117ba8261177f565b826117c48461178a565b90506117cf8161179a565b9250602082101561180f5761180a7fffffffffffffffffffffffffffffffffffffffffffffffffffffffffffffffff8360200360080261140b565b831692505b5050919050565b600060408201905061182b6000830185611687565b6118386020830184611687565b9392505050565b7f4e487b7100000000000000000000000000000000000000000000000000000000600052601160045260246000fd5b60006118798261146a565b91506118848361146a565b925082820190508082111561189c5761189b61183f565b5b92915050565b60006060820190506118b76000830186611696565b6118c46020830185611687565b6118d16040830184611687565b949350505050565b60006020820190506118ee6000830184611687565b92915050565b600079ffffffffffffffffffffffffffffffffffffffffffffffffffff82169050919050565b6000611925826118f4565b9150611930836118f4565b9250828201905079ffffffffffffffffffffffffffffffffffffffffffffffffffff8111156119625761196161183f565b5b92915050565b6000819050919050565b600060ff82169050919050565b600061199a61199561199084611968565b611474565b611972565b9050919050565b6119aa8161197f565b82525050565b60006040820190506119c560008301856119a1565b6119d26020830184611687565b9392505050565b60006119e4826118f4565b91506119ef836118f4565b9250828203905079ffffffffffffffffffffffffffffffffffffffffffffffffffff811115611a2157611a2061183f565b5b92915050565b6000611a328261146a565b9150611a3d8361146a565b9250828203905081811115611a5557611a5461183f565b5b92915050565b6000819050919050565b6000611a80611a7b611a7684611a5b565b611474565b611972565b9050919050565b611a9081611a65565b82525050565b6000604082019050611aab6000830185611a87565b611ab86020830184611687565b9392505050565b60805160a05160c05160e0516101005161012051610140516101605161570f611b3260003960008181610e0f01528181610eee01526114f70152600061290f015260006128d401526000612dd101526000612db0015260006124a2015260006124f801526000612521015261570f6000f3fe608060405234801561001057600080fd5b50600436106102a05760003560e01c806370a08231116101675780639ab24eb0116100ce578063d505accf11610087578063d505accf14610867578063d547741f14610883578063dd62ed3e1461089f578063eda7a3fc146108cf578063f1127ed8146108ff578063f4cdda361461092f576102a0565b80639ab24eb0146107a7578063a217fddf146107d7578063a9059cbb146107f5578063b483baab14610825578063c2cf67f314610841578063c3cda5201461084b576102a0565b80638c2c9985116101205780638c2c9985146106cf5780638e539e8c146106ed578063902d55a51461071d57806391d148541461073b57806391ddadf41461076b57806395d89b4114610789576102a0565b806370a08231146105f557806371853dba1461062557806379cc6790146106435780637cb647591461065f5780637ecebe001461067b57806384b0196e146106ab576102a0565b80632eb4a7ab1161020b57806342966c68116101c457806342966c68146105215780634bf5d7e91461053d578063587cde1e1461055b5780635c19a95c1461058b5780636ac5bbe0146105a75780636fcfff45146105c5576102a0565b80632eb4a7ab1461045f5780632f2ff15d1461047d578063313ce567146104995780633644e515146104b757806336568abe146104d55780633a46b1a8146104f1576102a0565b80631828c92a1161025d5780631828c92a146103795780631a5e62fd146103a95780631fda9a02146103c557806323b872dd146103e3578063248a9ca31461041357806325e030f614610443576102a0565b806301ffc9a7146102a557806303b9d228146102d557806306fdde03146102f1578063095ea7b31461030f5780630bcae1ac1461033f57806318160ddd1461035b575b600080fd5b6102bf60048036038101906102ba91906141f0565b61095f565b6040516102cc9190614238565b60405180910390f35b6102ef60048036038101906102ea91906142b1565b6109d9565b005b6102f9610a43565b604051610306919061436e565b60405180910390f35b610329600480360381019061032491906143c6565b610ad5565b6040516103369190614238565b60405180910390f35b6103596004803603810190610354919061446b565b610af8565b005b610363610d34565b60405161037091906144da565b60405180910390f35b610393600480360381019061038e91906144f5565b610d3e565b6040516103a09190614531565b60405180910390f35b6103c360048036038101906103be91906142b1565b610d71565b005b6103cd610e0d565b6040516103da91906145ab565b60405180910390f35b6103fd60048036038101906103f891906145c6565b610e31565b60405161040a9190614238565b60405180910390f35b61042d6004803603810190610428919061464f565b610e60565b60405161043a919061468b565b60405180910390f35b61045d600480360381019061045891906146fc565b610e80565b005b6104676111f5565b604051610474919061468b565b60405180910390f35b61049760048036038101906104929190614749565b6111fb565b005b6104a161121d565b6040516104ae91906147a5565b60405180910390f35b6104bf611226565b6040516104cc919061468b565b60405180910390f35b6104ef60048036038101906104ea9190614749565b611235565b005b61050b600480360381019061050691906143c6565b6112b0565b60405161051891906144da565b60405180910390f35b61053b600480360381019061053691906144f5565b61132f565b005b610545611343565b604051610552919061436e565b60405180910390f35b610575600480360381019061057091906142b1565b6113d7565b6040516105829190614531565b60405180910390f35b6105a560048036038101906105a091906142b1565b611440565b005b6105af61145a565b6040516105bc91906144da565b60405180910390f35b6105df60048036038101906105da91906142b1565b6115ec565b6040516105ec91906147df565b60405180910390f35b61060f600480360381019061060a91906142b1565b6115fe565b60405161061c91906144da565b60405180910390f35b61062d611646565b60405161063a91906144da565b60405180910390f35b61065d600480360381019061065891906143c6565b61164b565b005b6106796004803603810190610674919061464f565b61166b565b005b610695600480360381019061069091906142b1565b6116ba565b6040516106a291906144da565b60405180910390f35b6106b36116cc565b6040516106c697969594939291906148f3565b60405180910390f35b6106d7611776565b6040516106e491906144da565b60405180910390f35b610707600480360381019061070291906144f5565b611782565b60405161071491906144da565b60405180910390f35b6107256117c3565b60405161073291906144da565b60405180910390f35b61075560048036038101906107509190614749565b6117d1565b6040516107629190614238565b60405180910390f35b61077361183c565b6040516107809190614998565b60405180910390f35b61079161184b565b60405161079e919061436e565b60405180910390f35b6107c160048036038101906107bc91906142b1565b6118dd565b6040516107ce91906144da565b60405180910390f35b6107df611949565b6040516107ec919061468b565b60405180910390f35b61080f600480360381019061080a91906143c6565b611950565b60405161081c9190614238565b60405180910390f35b61083f600480360381019061083a91906142b1565b611973565b005b6108496119dd565b005b610865600480360381019061086091906149df565b611ba1565b005b610881600480360381019061087c9190614a6c565b611c67565b005b61089d60048036038101906108989190614749565b611daf565b005b6108b960048036038101906108b49190614b0e565b611dd1565b6040516108c691906144da565b60405180910390f35b6108e960048036038101906108e491906143c6565b611e58565b6040516108f691906144da565b60405180910390f35b61091960048036038101906109149190614b7a565b611e89565b6040516109269190614c2d565b60405180910390f35b610949600480360381019061094491906142b1565b611ea3565b6040516109569190614238565b60405180910390f35b60007f7965db0b000000000000000000000000000000000000000000000000000000007bffffffffffffffffffffffffffffffffffffffffffffffffffffffff1916827bffffffffffffffffffffffffffffffffffffffffffffffffffffffff191614806109d257506109d182611eef565b5b9050919050565b6000801b6109e681611f59565b600069021e19e0c9bab240000090506109ff8382611950565b610a3e576040517f08c379a0000000000000000000000000000000000000000000000000000000008152600401610a3590614c94565b60405180910390fd5b505050565b606060038054610a5290614ce3565b80601f0160208091040260200160405190810160405280929190818152602001828054610a7e90614ce3565b8015610acb5780601f10610aa057610100808354040283529160200191610acb565b820191906000526020600020905b815481529060010190602001808311610aae57829003601f168201915b5050505050905090565b600080610ae0611f6d565b9050610aed818585611f75565b600191505092915050565b600f60003373ffffffffffffffffffffffffffffffffffffffff1673ffffffffffffffffffffffffffffffffffffffff16815260200190815260200160002060009054906101000a900460ff1615610b85576040517f08c379a0000000000000000000000000000000000000000000000000000000008152600401610b7c90614d60565b60405180910390fd5b60003384604051602001610b9a929190614d80565b604051602081830303815290604052805190602001209050610c00838380806020026020016040519081016040528093929190818152602001838360200280828437600081840152601f19601f82011690508083019250505050505050600e5483611f87565b610c3f576040517f08c379a0000000000000000000000000000000000000000000000000000000008152600401610c3690614df5565b60405180910390fd5b6001600f60003373ffffffffffffffffffffffffffffffffffffffff1673ffffffffffffffffffffffffffffffffffffffff16815260200190815260200160002060006101000a81548160ff021916908315150217905550610ca13385611950565b610ce0576040517f08c379a0000000000000000000000000000000000000000000000000000000008152600401610cd790614c94565b60405180910390fd5b3373ffffffffffffffffffffffffffffffffffffffff167f650e45f04ef8a0c267b2f78d983913f69ae3a353b2b32de5429307522be0ab5585604051610d2691906144da565b60405180910390a250505050565b6000600254905090565b600d6020528060005260406000206000915054906101000a900473ffffffffffffffffffffffffffffffffffffffff1681565b6000801b610d7e81611f59565b600073ffffffffffffffffffffffffffffffffffffffff168273ffffffffffffffffffffffffffffffffffffffff1603610ded576040517f08c379a0000000000000000000000000000000000000000000000000000000008152600401610de490614e87565b60405180910390fd5b610dfa6000801b83611f9e565b50610e086000801b33612090565b505050565b7f000000000000000000000000000000000000000000000000000000000000000081565b600080610e3c611f6d565b9050610e49858285612183565b610e54858585612218565b60019150509392505050565b600060056000838152602001908152602001600020600101549050919050565b6008828290501115610ec7576040517f08c379a0000000000000000000000000000000000000000000000000000000008152600401610ebe90614ef3565b60405180910390fd5b60005b82829050811015611151573373ffffffffffffffffffffffffffffffffffffffff167f000000000000000000000000000000000000000000000000000000000000000073ffffffffffffffffffffffffffffffffffffffff16636352211e858585818110610f3b57610f3a614f13565b5b905060200201356040518263ffffffff1660e01b8152600401610f5e91906144da565b602060405180830381865afa158015610f7b573d6000803e3d6000fd5b505050506040513d601f19601f82011682018060405250810190610f9f9190614f57565b73ffffffffffffffffffffffffffffffffffffffff1614610ff5576040517f08c379a0000000000000000000000000000000000000000000000000000000008152600401610fec90614fd0565b60405180910390fd5b6000600d600085858581811061100e5761100d614f13565b5b90506020020135815260200190815260200160002060009054906101000a900473ffffffffffffffffffffffffffffffffffffffff169050600073ffffffffffffffffffffffffffffffffffffffff168173ffffffffffffffffffffffffffffffffffffffff16141580156110af57503373ffffffffffffffffffffffffffffffffffffffff168173ffffffffffffffffffffffffffffffffffffffff1614155b156110d8576110d7818585858181106110cb576110ca614f13565b5b9050602002013561230c565b5b33600d60008686868181106110f0576110ef614f13565b5b90506020020135815260200190815260200160002060006101000a81548173ffffffffffffffffffffffffffffffffffffffff021916908373ffffffffffffffffffffffffffffffffffffffff160217905550508080600101915050610eca565b508181600c60003373ffffffffffffffffffffffffffffffffffffffff1673ffffffffffffffffffffffffffffffffffffffff16815260200190815260200160002091906111a09291906140c5565b503373ffffffffffffffffffffffffffffffffffffffff167f3e0c55b1f42299560ca41ebffdd5e878a7126e2189e119d006e4a23149390e6383836040516111e992919061505a565b60405180910390a25050565b600e5481565b61120482610e60565b61120d81611f59565b6112178383611f9e565b50505050565b60006012905090565b600061123061249e565b905090565b61123d611f6d565b73ffffffffffffffffffffffffffffffffffffffff168173ffffffffffffffffffffffffffffffffffffffff16146112a1576040517f6697b23200000000000000000000000000000000000000000000000000000000815260040160405180910390fd5b6112ab8282612090565b505050565b600061130b6112be83612555565b600a60008673ffffffffffffffffffffffffffffffffffffffff1673ffffffffffffffffffffffffffffffffffffffff1681526020019081526020016000206125c190919063ffffffff16565b79ffffffffffffffffffffffffffffffffffffffffffffffffffff16905092915050565b61134061133a611f6d565b826126bb565b50565b606061134d61273d565b65ffffffffffff1661135d61183c565b65ffffffffffff161461139c576040517f6ff0714000000000000000000000000000000000000000000000000000000000815260040160405180910390fd5b6040518060400160405280601d81526020017f6d6f64653d626c6f636b6e756d6265722666726f6d3d64656661756c74000000815250905090565b6000600960008373ffffffffffffffffffffffffffffffffffffffff1673ffffffffffffffffffffffffffffffffffffffff16815260200190815260200160002060009054906101000a900473ffffffffffffffffffffffffffffffffffffffff169050919050565b600061144a611f6d565b9050611456818361274d565b5050565b600080600c60003373ffffffffffffffffffffffffffffffffffffffff1673ffffffffffffffffffffffffffffffffffffffff168152602001908152602001600020905060008180549050116114e5576040517f08c379a00000000000000000000000000000000000000000000000000000000081526004016114dc906150ca565b60405180910390fd5b6000805b82805490508110156115d0577f000000000000000000000000000000000000000000000000000000000000000073ffffffffffffffffffffffffffffffffffffffff16636352211e84838154811061154457611543614f13565b5b90600052602060002001546040518263ffffffff1660e01b815260040161156b91906144da565b602060405180830381865afa9250505080156115a557506040513d601f19601f820116820180604052508101906115a29190614f57565b60015b6115bc5781806115b490615119565b9250506115c2565b506115c3565b5b80806001019150506114e9565b50670de0b6b3a7640000816115e59190615161565b9250505090565b60006115f782612861565b9050919050565b60008060008373ffffffffffffffffffffffffffffffffffffffff1673ffffffffffffffffffffffffffffffffffffffff168152602001908152602001600020549050919050565b600881565b61165d82611657611f6d565b83612183565b61166782826126bb565b5050565b6000801b61167881611f59565b81600e819055507f42cbc405e4dbf1b691e85b9a34b08ecfcf7a9ad9078bf4d645ccfa1fac11c10b826040516116ae919061468b565b60405180910390a15050565b60006116c5826128b9565b9050919050565b6000606080600080600060606116e06128cb565b6116e8612906565b46306000801b600067ffffffffffffffff811115611709576117086151a3565b5b6040519080825280602002602001820160405280156117375781602001602082028036833780820191505090505b507f0f00000000000000000000000000000000000000000000000000000000000000959493929190965096509650965096509650965090919293949596565b670de0b6b3a764000081565b60006117a061179083612555565b600b6125c190919063ffffffff16565b79ffffffffffffffffffffffffffffffffffffffffffffffffffff169050919050565b690878678326eac900000081565b60006005600084815260200190815260200160002060000160008373ffffffffffffffffffffffffffffffffffffffff1673ffffffffffffffffffffffffffffffffffffffff16815260200190815260200160002060009054906101000a900460ff16905092915050565b600061184661273d565b905090565b60606004805461185a90614ce3565b80601f016020809104026020016040519081016040528092919081815260200182805461188690614ce3565b80156118d35780601f106118a8576101008083540402835291602001916118d3565b820191906000526020600020905b8154815290600101906020018083116118b657829003601f168201915b5050505050905090565b6000611926600a60008473ffffffffffffffffffffffffffffffffffffffff1673ffffffffffffffffffffffffffffffffffffffff168152602001908152602001600020612941565b79ffffffffffffffffffffffffffffffffffffffffffffffffffff169050919050565b6000801b81565b60008061195b611f6d565b9050611968818585612218565b600191505092915050565b6000801b61198081611f59565b600069021e19e0c9bab240000090506119998382611950565b6119d8576040517f08c379a00000000000000000000000000000000000000000000000000000000081526004016119cf90614c94565b60405180910390fd5b505050565b6000600c60003373ffffffffffffffffffffffffffffffffffffffff1673ffffffffffffffffffffffffffffffffffffffff16815260200190815260200160002090506000611a2a61145a565b905060005b8280549050811015611a9b57600d6000848381548110611a5257611a51614f13565b5b9060005260206000200154815260200190815260200160002060006101000a81549073ffffffffffffffffffffffffffffffffffffffff02191690558080600101915050611a2f565b50600c60003373ffffffffffffffffffffffffffffffffffffffff1673ffffffffffffffffffffffffffffffffffffffff1681526020019081526020016000206000611ae79190614112565b6000811115611b9d57611afa3382611950565b611b39576040517f08c379a0000000000000000000000000000000000000000000000000000000008152600401611b3090614c94565b60405180910390fd5b3373ffffffffffffffffffffffffffffffffffffffff167ff339e6bc9a0244f6675501c9afab62525b07b492a8d4fee5fe565b1ce99bac6c670de0b6b3a764000083611b859190615201565b83604051611b94929190615232565b60405180910390a25b5050565b83421115611be657836040517f4683af0e000000000000000000000000000000000000000000000000000000008152600401611bdd91906144da565b60405180910390fd5b6000611c48611c407fe48329057bfd03d55e49b547132e39cffd9c1820ad7b9d4c5307691425d15adf898989604051602001611c25949392919061525b565b604051602081830303815290604052805190602001206129a9565b8585856129c3565b9050611c5481876129f3565b611c5e818861274d565b50505050505050565b83421115611cac57836040517f62791302000000000000000000000000000000000000000000000000000000008152600401611ca391906144da565b60405180910390fd5b60007f6e71edae12b1b97f4d1f60370fef10105fa2faae0126114a169c64845d6126c9888888611cdb8c612a4b565b89604051602001611cf1969594939291906152a0565b6040516020818303038152906040528051906020012090506000611d14826129a9565b90506000611d24828787876129c3565b90508973ffffffffffffffffffffffffffffffffffffffff168173ffffffffffffffffffffffffffffffffffffffff1614611d9857808a6040517f4b800e46000000000000000000000000000000000000000000000000000000008152600401611d8f929190615301565b60405180910390fd5b611da38a8a8a611f75565b50505050505050505050565b611db882610e60565b611dc181611f59565b611dcb8383612090565b50505050565b6000600160008473ffffffffffffffffffffffffffffffffffffffff1673ffffffffffffffffffffffffffffffffffffffff16815260200190815260200160002060008373ffffffffffffffffffffffffffffffffffffffff1673ffffffffffffffffffffffffffffffffffffffff16815260200190815260200160002054905092915050565b600c6020528160005260406000208181548110611e7457600080fd5b90600052602060002001600091509150505481565b611e91614133565b611e9b8383612aa2565b905092915050565b600f6020528060005260406000206000915054906101000a900460ff1681565b60008183611ed1919061532a565b905092915050565b60008183611ee79190615378565b905092915050565b60007f01ffc9a7000000000000000000000000000000000000000000000000000000007bffffffffffffffffffffffffffffffffffffffffffffffffffffffff1916827bffffffffffffffffffffffffffffffffffffffffffffffffffffffff1916149050919050565b611f6a81611f65611f6d565b612b03565b50565b600033905090565b611f828383836001612b54565b505050565b600082611f948584612d2b565b1490509392505050565b6000611faa83836117d1565b6120855760016005600085815260200190815260200160002060000160008473ffffffffffffffffffffffffffffffffffffffff1673ffffffffffffffffffffffffffffffffffffffff16815260200190815260200160002060006101000a81548160ff021916908315150217905550612022611f6d565b73ffffffffffffffffffffffffffffffffffffffff168273ffffffffffffffffffffffffffffffffffffffff16847f2f8788117e7eff1d82e926ec794901d17c78024a50270940304540a733656f0d60405160405180910390a46001905061208a565b600090505b92915050565b600061209c83836117d1565b156121785760006005600085815260200190815260200160002060000160008473ffffffffffffffffffffffffffffffffffffffff1673ffffffffffffffffffffffffffffffffffffffff16815260200190815260200160002060006101000a81548160ff021916908315150217905550612115611f6d565b73ffffffffffffffffffffffffffffffffffffffff168273ffffffffffffffffffffffffffffffffffffffff16847ff6391f5c32d9c69d2a47ea670b442974b53935d1edc7fd64eb21e047a839171b60405160405180910390a46001905061217d565b600090505b92915050565b600061218f8484611dd1565b90507fffffffffffffffffffffffffffffffffffffffffffffffffffffffffffffffff8110156122125781811015612202578281836040517ffb8f41b20000000000000000000000000000000000000000000000000000000081526004016121f9939291906153c6565b60405180910390fd5b61221184848484036000612b54565b5b50505050565b600073ffffffffffffffffffffffffffffffffffffffff168373ffffffffffffffffffffffffffffffffffffffff160361228a5760006040517f96c6fd1e0000000000000000000000000000000000000000000000000000000081526004016122819190614531565b60405180910390fd5b600073ffffffffffffffffffffffffffffffffffffffff168273ffffffffffffffffffffffffffffffffffffffff16036122fc5760006040517fec442f050000000000000000000000000000000000000000000000000000000081526004016122f39190614531565b60405180910390fd5b612307838383612d7b565b505050565b6000600c60008473ffffffffffffffffffffffffffffffffffffffff1673ffffffffffffffffffffffffffffffffffffffff168152602001908152602001600020905060005b8180549050811015612440578282828154811061237257612371614f13565b5b90600052602060002001540361243357816001838054905061239491906153fd565b815481106123a5576123a4614f13565b5b90600052602060002001548282815481106123c3576123c2614f13565b5b9060005260206000200181905550818054806123e2576123e1615431565b5b60019003818190600052602060002001600090559055600d600084815260200190815260200160002060006101000a81549073ffffffffffffffffffffffffffffffffffffffff0219169055612440565b8080600101915050612352565b50600081805490500361249957600c60008473ffffffffffffffffffffffffffffffffffffffff1673ffffffffffffffffffffffffffffffffffffffff16815260200190815260200160002060006124989190614112565b5b505050565b60007f000000000000000000000000000000000000000000000000000000000000000073ffffffffffffffffffffffffffffffffffffffff163073ffffffffffffffffffffffffffffffffffffffff1614801561251a57507f000000000000000000000000000000000000000000000000000000000000000046145b15612547577f00000000000000000000000000000000000000000000000000000000000000009050612552565b61254f612d8b565b90505b90565b60008061256061183c565b90508065ffffffffffff1683106125b05782816040517fecd3f81e0000000000000000000000000000000000000000000000000000000081526004016125a7929190615460565b60405180910390fd5b6125b983612e21565b915050919050565b6000808360000180549050905060008082905060058311156126495760006125e884612e7b565b846125f391906153fd565b90506126028760000182613018565b60000160009054906101000a900465ffffffffffff1665ffffffffffff168665ffffffffffff16101561263757809150612647565b6001816126449190615489565b92505b505b600061265a8760000187858561302d565b9050600081146126ac5761267d8760000160018361267891906153fd565b613018565b60000160069054906101000a900479ffffffffffffffffffffffffffffffffffffffffffffffffffff166126af565b60005b94505050505092915050565b600073ffffffffffffffffffffffffffffffffffffffff168273ffffffffffffffffffffffffffffffffffffffff160361272d5760006040517f96c6fd1e0000000000000000000000000000000000000000000000000000000081526004016127249190614531565b60405180910390fd5b61273982600083612d7b565b5050565b600061274843612e21565b905090565b6000612758836113d7565b905081600960008573ffffffffffffffffffffffffffffffffffffffff1673ffffffffffffffffffffffffffffffffffffffff16815260200190815260200160002060006101000a81548173ffffffffffffffffffffffffffffffffffffffff021916908373ffffffffffffffffffffffffffffffffffffffff1602179055508173ffffffffffffffffffffffffffffffffffffffff168173ffffffffffffffffffffffffffffffffffffffff168473ffffffffffffffffffffffffffffffffffffffff167f3134e8a2e6d97e929a7e54011ea5485d7d196dd5f0ba4d4ef95803e8e3fc257f60405160405180910390a461285c8183612857866130a6565b6130b8565b505050565b60006128b26128ad600a60008573ffffffffffffffffffffffffffffffffffffffff1673ffffffffffffffffffffffffffffffffffffffff168152602001908152602001600020613331565b613342565b9050919050565b60006128c48261339a565b9050919050565b606061290160067f00000000000000000000000000000000000000000000000000000000000000006133e390919063ffffffff16565b905090565b606061293c60077f00000000000000000000000000000000000000000000000000000000000000006133e390919063ffffffff16565b905090565b600080826000018054905090506000811461299e5761296f8360000160018361296a91906153fd565b613018565b60000160069054906101000a900479ffffffffffffffffffffffffffffffffffffffffffffffffffff166129a1565b60005b915050919050565b60006129bc6129b661249e565b83613493565b9050919050565b6000806000806129d5888888886134d4565b9250925092506129e582826135c8565b829350505050949350505050565b60006129fe83612a4b565b9050808214612a465782816040517f752d88c0000000000000000000000000000000000000000000000000000000008152600401612a3d929190614d80565b60405180910390fd5b505050565b6000600860008373ffffffffffffffffffffffffffffffffffffffff1673ffffffffffffffffffffffffffffffffffffffff1681526020019081526020016000206000815480929190600101919050559050919050565b612aaa614133565b612afb82600a60008673ffffffffffffffffffffffffffffffffffffffff1673ffffffffffffffffffffffffffffffffffffffff16815260200190815260200160002061372c90919063ffffffff16565b905092915050565b612b0d82826117d1565b612b505780826040517fe2517d3f000000000000000000000000000000000000000000000000000000008152600401612b479291906154bd565b60405180910390fd5b5050565b600073ffffffffffffffffffffffffffffffffffffffff168473ffffffffffffffffffffffffffffffffffffffff1603612bc65760006040517fe602df05000000000000000000000000000000000000000000000000000000008152600401612bbd9190614531565b60405180910390fd5b600073ffffffffffffffffffffffffffffffffffffffff168373ffffffffffffffffffffffffffffffffffffffff1603612c385760006040517f94280d62000000000000000000000000000000000000000000000000000000008152600401612c2f9190614531565b60405180910390fd5b81600160008673ffffffffffffffffffffffffffffffffffffffff1673ffffffffffffffffffffffffffffffffffffffff16815260200190815260200160002060008573ffffffffffffffffffffffffffffffffffffffff1673ffffffffffffffffffffffffffffffffffffffff168152602001908152602001600020819055508015612d25578273ffffffffffffffffffffffffffffffffffffffff168473ffffffffffffffffffffffffffffffffffffffff167f8c5be1e5ebec7d5bd14f71427d1e84f3dd0314c0f7b2291e5b200ac8c7c3b92584604051612d1c91906144da565b60405180910390a35b50505050565b60008082905060005b8451811015612d7057612d6182868381518110612d5457612d53614f13565b5b6020026020010151613801565b91508080600101915050612d34565b508091505092915050565b612d8683838361382c565b505050565b60007f8b73c3c69bb8fe3d512ecc4cf759cc79239f7b179b0ffacaa9a75d522b39400f7f00000000000000000000000000000000000000000000000000000000000000007f00000000000000000000000000000000000000000000000000000000000000004630604051602001612e069594939291906154e6565b60405160208183030381529060405280519060200120905090565b600065ffffffffffff8016821115612e73576030826040517f6dfcc650000000000000000000000000000000000000000000000000000000008152600401612e6a929190615574565b60405180910390fd5b819050919050565b600060018211612e8d57819050613013565b60008290506000600190507001000000000000000000000000000000008210612ebf57608082901c9150604081901b90505b680100000000000000008210612ede57604082901c9150602081901b90505b6401000000008210612ef957602082901c9150601081901b90505b620100008210612f1257601082901c9150600881901b90505b6101008210612f2a57600882901c9150600481901b90505b60108210612f4157600482901c9150600281901b90505b60048210612f5157600181901b90505b600181600302901c90506001818581612f6d57612f6c6151d2565b5b048201901c90506001818581612f8657612f856151d2565b5b048201901c90506001818581612f9f57612f9e6151d2565b5b048201901c90506001818581612fb857612fb76151d2565b5b048201901c90506001818581612fd157612fd06151d2565b5b048201901c90506001818581612fea57612fe96151d2565b5b048201901c905061300c818581613004576130036151d2565b5b0482116138dd565b8103925050505b919050565b60008260005281602060002001905092915050565b60005b8183101561309b57600061304484846138e9565b90508465ffffffffffff166130598783613018565b60000160009054906101000a900465ffffffffffff1665ffffffffffff16111561308557809250613095565b6001816130929190615489565b93505b50613030565b819050949350505050565b60006130b1826115fe565b9050919050565b8173ffffffffffffffffffffffffffffffffffffffff168373ffffffffffffffffffffffffffffffffffffffff16141580156130f45750600081115b1561332c57600073ffffffffffffffffffffffffffffffffffffffff168373ffffffffffffffffffffffffffffffffffffffff161461321257600080613183600a60008773ffffffffffffffffffffffffffffffffffffffff1673ffffffffffffffffffffffffffffffffffffffff168152602001908152602001600020611ed961317e8661390f565b61397d565b79ffffffffffffffffffffffffffffffffffffffffffffffffffff16915079ffffffffffffffffffffffffffffffffffffffffffffffffffff1691508473ffffffffffffffffffffffffffffffffffffffff167fdec2bacdd2f05b59de34da9b523dff8be42e5e38e818c82fdb0bae774387a7248383604051613207929190615232565b60405180910390a250505b600073ffffffffffffffffffffffffffffffffffffffff168273ffffffffffffffffffffffffffffffffffffffff161461332b5760008061329c600a60008673ffffffffffffffffffffffffffffffffffffffff1673ffffffffffffffffffffffffffffffffffffffff168152602001908152602001600020611ec36132978661390f565b61397d565b79ffffffffffffffffffffffffffffffffffffffffffffffffffff16915079ffffffffffffffffffffffffffffffffffffffffffffffffffff1691508373ffffffffffffffffffffffffffffffffffffffff167fdec2bacdd2f05b59de34da9b523dff8be42e5e38e818c82fdb0bae774387a7248383604051613320929190615232565b60405180910390a250505b5b505050565b600081600001805490509050919050565b600063ffffffff8016821115613392576020826040517f6dfcc6500000000000000000000000000000000000000000000000000000000081526004016133899291906155d8565b60405180910390fd5b819050919050565b6000600860008373ffffffffffffffffffffffffffffffffffffffff1673ffffffffffffffffffffffffffffffffffffffff168152602001908152602001600020549050919050565b606060ff60001b8314613400576133f9836139bd565b905061348d565b81805461340c90614ce3565b80601f016020809104026020016040519081016040528092919081815260200182805461343890614ce3565b80156134855780601f1061345a57610100808354040283529160200191613485565b820191906000526020600020905b81548152906001019060200180831161346857829003601f168201915b505050505090505b92915050565b60006040517f190100000000000000000000000000000000000000000000000000000000000081528360028201528260228201526042812091505092915050565b60008060007f7fffffffffffffffffffffffffffffff5d576e7357a4501ddfe92f46681b20a08460001c11156135145760006003859250925092506135be565b6000600188888888604051600081526020016040526040516135399493929190615601565b6020604051602081039080840390855afa15801561355b573d6000803e3d6000fd5b505050602060405103519050600073ffffffffffffffffffffffffffffffffffffffff168173ffffffffffffffffffffffffffffffffffffffff16036135af57600060016000801b935093509350506135be565b8060008060001b935093509350505b9450945094915050565b600060038111156135dc576135db615646565b5b8260038111156135ef576135ee615646565b5b0315613728576001600381111561360957613608615646565b5b82600381111561361c5761361b615646565b5b03613653576040517ff645eedf00000000000000000000000000000000000000000000000000000000815260040160405180910390fd5b6002600381111561366757613666615646565b5b82600381111561367a57613679615646565b5b036136bf578060001c6040517ffce698f70000000000000000000000000000000000000000000000000000000081526004016136b691906144da565b60405180910390fd5b6003808111156136d2576136d1615646565b5b8260038111156136e5576136e4615646565b5b0361372757806040517fd78bce0c00000000000000000000000000000000000000000000000000000000815260040161371e919061468b565b60405180910390fd5b5b5050565b613734614133565b826000018263ffffffff16815481106137505761374f614f13565b5b906000526020600020016040518060400160405290816000820160009054906101000a900465ffffffffffff1665ffffffffffff1665ffffffffffff1681526020016000820160069054906101000a900479ffffffffffffffffffffffffffffffffffffffffffffffffffff1679ffffffffffffffffffffffffffffffffffffffffffffffffffff1679ffffffffffffffffffffffffffffffffffffffffffffffffffff1681525050905092915050565b6000818310613819576138148284613a31565b613824565b6138238383613a31565b5b905092915050565b613837838383613a48565b600073ffffffffffffffffffffffffffffffffffffffff168373ffffffffffffffffffffffffffffffffffffffff16036138cd576000613875610d34565b90506000613881613c6d565b9050808211156138ca5781816040517f1cb15d260000000000000000000000000000000000000000000000000000000081526004016138c1929190615232565b60405180910390fd5b50505b6138d8838383613c91565b505050565b60008115159050919050565b600060028284186138fa9190615201565b8284166139079190615489565b905092915050565b600079ffffffffffffffffffffffffffffffffffffffffffffffffffff80168211156139755760d0826040517f6dfcc65000000000000000000000000000000000000000000000000000000000815260040161396c9291906156b0565b60405180910390fd5b819050919050565b6000806139b161398b61183c565b6139a161399788612941565b868863ffffffff16565b87613d4b9092919063ffffffff16565b91509150935093915050565b606060006139ca83613d68565b90506000602067ffffffffffffffff8111156139e9576139e86151a3565b5b6040519080825280601f01601f191660200182016040528015613a1b5781602001600182028036833780820191505090505b5090508181528360208201528092505050919050565b600082600052816020526040600020905092915050565b600073ffffffffffffffffffffffffffffffffffffffff168373ffffffffffffffffffffffffffffffffffffffff1603613a9a578060026000828254613a8e9190615489565b92505081905550613b6d565b60008060008573ffffffffffffffffffffffffffffffffffffffff1673ffffffffffffffffffffffffffffffffffffffff16815260200190815260200160002054905081811015613b26578381836040517fe450d38c000000000000000000000000000000000000000000000000000000008152600401613b1d939291906153c6565b60405180910390fd5b8181036000808673ffffffffffffffffffffffffffffffffffffffff1673ffffffffffffffffffffffffffffffffffffffff16815260200190815260200160002081905550505b600073ffffffffffffffffffffffffffffffffffffffff168273ffffffffffffffffffffffffffffffffffffffff1603613bb65780600260008282540392505081905550613c03565b806000808473ffffffffffffffffffffffffffffffffffffffff1673ffffffffffffffffffffffffffffffffffffffff168152602001908152602001600020600082825401925050819055505b8173ffffffffffffffffffffffffffffffffffffffff168373ffffffffffffffffffffffffffffffffffffffff167fddf252ad1be2c89b69c2b068fc378daa952ba7f163c4a11628f55a4df523b3ef83604051613c6091906144da565b60405180910390a3505050565b600079ffffffffffffffffffffffffffffffffffffffffffffffffffff8016905090565b600073ffffffffffffffffffffffffffffffffffffffff168373ffffffffffffffffffffffffffffffffffffffff1603613cde57613cdb600b611ec3613cd68461390f565b61397d565b50505b600073ffffffffffffffffffffffffffffffffffffffff168273ffffffffffffffffffffffffffffffffffffffff1603613d2b57613d28600b611ed9613d238461390f565b61397d565b50505b613d46613d37846113d7565b613d40846113d7565b836130b8565b505050565b600080613d5c856000018585613db8565b91509150935093915050565b60008060ff8360001c169050601f811115613daf576040517fb3512b0c00000000000000000000000000000000000000000000000000000000815260040160405180910390fd5b80915050919050565b6000806000858054905090506000811115613fd5576000613de587600184613de091906153fd565b613018565b905060008160000160009054906101000a900465ffffffffffff16905060008260000160069054906101000a900479ffffffffffffffffffffffffffffffffffffffffffffffffffff1690508765ffffffffffff168265ffffffffffff161115613e7b576040517f2520601d00000000000000000000000000000000000000000000000000000000815260040160405180910390fd5b8765ffffffffffff168265ffffffffffff1603613ee657868360000160066101000a81548179ffffffffffffffffffffffffffffffffffffffffffffffffffff021916908379ffffffffffffffffffffffffffffffffffffffffffffffffffff160217905550613fc6565b8860405180604001604052808a65ffffffffffff1681526020018979ffffffffffffffffffffffffffffffffffffffffffffffffffff168152509080600181540180825580915050600190039060005260206000200160009091909190915060008201518160000160006101000a81548165ffffffffffff021916908365ffffffffffff16021790555060208201518160000160066101000a81548179ffffffffffffffffffffffffffffffffffffffffffffffffffff021916908379ffffffffffffffffffffffffffffffffffffffffffffffffffff16021790555050505b808795509550505050506140bd565b8560405180604001604052808765ffffffffffff1681526020018679ffffffffffffffffffffffffffffffffffffffffffffffffffff168152509080600181540180825580915050600190039060005260206000200160009091909190915060008201518160000160006101000a81548165ffffffffffff021916908365ffffffffffff16021790555060208201518160000160066101000a81548179ffffffffffffffffffffffffffffffffffffffffffffffffffff021916908379ffffffffffffffffffffffffffffffffffffffffffffffffffff160217905550505060008492509250505b935093915050565b828054828255906000526020600020908101928215614101579160200282015b828111156141005782358255916020019190600101906140e5565b5b50905061410e9190614171565b5090565b50805460008255906000526020600020908101906141309190614171565b50565b6040518060400160405280600065ffffffffffff168152602001600079ffffffffffffffffffffffffffffffffffffffffffffffffffff1681525090565b5b8082111561418a576000816000905550600101614172565b5090565b600080fd5b600080fd5b60007fffffffff0000000000000000000000000000000000000000000000000000000082169050919050565b6141cd81614198565b81146141d857600080fd5b50565b6000813590506141ea816141c4565b92915050565b6000602082840312156142065761420561418e565b5b6000614214848285016141db565b91505092915050565b60008115159050919050565b6142328161421d565b82525050565b600060208201905061424d6000830184614229565b92915050565b600073ffffffffffffffffffffffffffffffffffffffff82169050919050565b600061427e82614253565b9050919050565b61428e81614273565b811461429957600080fd5b50565b6000813590506142ab81614285565b92915050565b6000602082840312156142c7576142c661418e565b5b60006142d58482850161429c565b91505092915050565b600081519050919050565b600082825260208201905092915050565b60005b838110156143185780820151818401526020810190506142fd565b60008484015250505050565b6000601f19601f8301169050919050565b6000614340826142de565b61434a81856142e9565b935061435a8185602086016142fa565b61436381614324565b840191505092915050565b600060208201905081810360008301526143888184614335565b905092915050565b6000819050919050565b6143a381614390565b81146143ae57600080fd5b50565b6000813590506143c08161439a565b92915050565b600080604083850312156143dd576143dc61418e565b5b60006143eb8582860161429c565b92505060206143fc858286016143b1565b9150509250929050565b600080fd5b600080fd5b600080fd5b60008083601f84011261442b5761442a614406565b5b8235905067ffffffffffffffff8111156144485761444761440b565b5b60208301915083602082028301111561446457614463614410565b5b9250929050565b6000806000604084860312156144845761448361418e565b5b6000614492868287016143b1565b935050602084013567ffffffffffffffff8111156144b3576144b2614193565b5b6144bf86828701614415565b92509250509250925092565b6144d481614390565b82525050565b60006020820190506144ef60008301846144cb565b92915050565b60006020828403121561450b5761450a61418e565b5b6000614519848285016143b1565b91505092915050565b61452b81614273565b82525050565b60006020820190506145466000830184614522565b92915050565b6000819050919050565b600061457161456c61456784614253565b61454c565b614253565b9050919050565b600061458382614556565b9050919050565b600061459582614578565b9050919050565b6145a58161458a565b82525050565b60006020820190506145c0600083018461459c565b92915050565b6000806000606084860312156145df576145de61418e565b5b60006145ed8682870161429c565b93505060206145fe8682870161429c565b925050604061460f868287016143b1565b9150509250925092565b6000819050919050565b61462c81614619565b811461463757600080fd5b50565b60008135905061464981614623565b92915050565b6000602082840312156146655761466461418e565b5b60006146738482850161463a565b91505092915050565b61468581614619565b82525050565b60006020820190506146a0600083018461467c565b92915050565b60008083601f8401126146bc576146bb614406565b5b8235905067ffffffffffffffff8111156146d9576146d861440b565b5b6020830191508360208202830111156146f5576146f4614410565b5b9250929050565b600080602083850312156147135761471261418e565b5b600083013567ffffffffffffffff81111561473157614730614193565b5b61473d858286016146a6565b92509250509250929050565b600080604083850312156147605761475f61418e565b5b600061476e8582860161463a565b925050602061477f8582860161429c565b9150509250929050565b600060ff82169050919050565b61479f81614789565b82525050565b60006020820190506147ba6000830184614796565b92915050565b600063ffffffff82169050919050565b6147d9816147c0565b82525050565b60006020820190506147f460008301846147d0565b92915050565b60007fff0000000000000000000000000000000000000000000000000000000000000082169050919050565b61482f816147fa565b82525050565b600081519050919050565b600082825260208201905092915050565b6000819050602082019050919050565b61486a81614390565b82525050565b600061487c8383614861565b60208301905092915050565b6000602082019050919050565b60006148a082614835565b6148aa8185614840565b93506148b583614851565b8060005b838110156148e65781516148cd8882614870565b97506148d883614888565b9250506001810190506148b9565b5085935050505092915050565b600060e082019050614908600083018a614826565b818103602083015261491a8189614335565b9050818103604083015261492e8188614335565b905061493d60608301876144cb565b61494a6080830186614522565b61495760a083018561467c565b81810360c08301526149698184614895565b905098975050505050505050565b600065ffffffffffff82169050919050565b61499281614977565b82525050565b60006020820190506149ad6000830184614989565b92915050565b6149bc81614789565b81146149c757600080fd5b50565b6000813590506149d9816149b3565b92915050565b60008060008060008060c087890312156149fc576149fb61418e565b5b6000614a0a89828a0161429c565b9650506020614a1b89828a016143b1565b9550506040614a2c89828a016143b1565b9450506060614a3d89828a016149ca565b9350506080614a4e89828a0161463a565b92505060a0614a5f89828a0161463a565b9150509295509295509295565b600080600080600080600060e0888a031215614a8b57614a8a61418e565b5b6000614a998a828b0161429c565b9750506020614aaa8a828b0161429c565b9650506040614abb8a828b016143b1565b9550506060614acc8a828b016143b1565b9450506080614add8a828b016149ca565b93505060a0614aee8a828b0161463a565b92505060c0614aff8a828b0161463a565b91505092959891949750929550565b60008060408385031215614b2557614b2461418e565b5b6000614b338582860161429c565b9250506020614b448582860161429c565b9150509250929050565b614b57816147c0565b8114614b6257600080fd5b50565b600081359050614b7481614b4e565b92915050565b60008060408385031215614b9157614b9061418e565b5b6000614b9f8582860161429c565b9250506020614bb085828601614b65565b9150509250929050565b614bc381614977565b82525050565b600079ffffffffffffffffffffffffffffffffffffffffffffffffffff82169050919050565b614bf881614bc9565b82525050565b604082016000820151614c146000850182614bba565b506020820151614c276020850182614bef565b50505050565b6000604082019050614c426000830184614bfe565b92915050565b7f5472616e73666572206661696c65640000000000000000000000000000000000600082015250565b6000614c7e600f836142e9565b9150614c8982614c48565b602082019050919050565b60006020820190508181036000830152614cad81614c71565b9050919050565b7f4e487b7100000000000000000000000000000000000000000000000000000000600052602260045260246000fd5b60006002820490506001821680614cfb57607f821691505b602082108103614d0e57614d0d614cb4565b5b50919050565b7f416c726561647920636c61696d65642061697264726f70000000000000000000600082015250565b6000614d4a6017836142e9565b9150614d5582614d14565b602082019050919050565b60006020820190508181036000830152614d7981614d3d565b9050919050565b6000604082019050614d956000830185614522565b614da260208301846144cb565b9392505050565b7f496e76616c69642070726f6f6600000000000000000000000000000000000000600082015250565b6000614ddf600d836142e9565b9150614dea82614da9565b602082019050919050565b60006020820190508181036000830152614e0e81614dd2565b9050919050565b7f43616e6e6f74207472616e736665722061646d696e20726f6c6520746f207a6560008201527f726f206164647265737300000000000000000000000000000000000000000000602082015250565b6000614e71602a836142e9565b9150614e7c82614e15565b604082019050919050565b60006020820190508181036000830152614ea081614e64565b9050919050565b7f4d6178203820746f6b656e730000000000000000000000000000000000000000600082015250565b6000614edd600c836142e9565b9150614ee882614ea7565b602082019050919050565b60006020820190508181036000830152614f0c81614ed0565b9050919050565b7f4e487b7100000000000000000000000000000000000000000000000000000000600052603260045260246000fd5b600081519050614f5181614285565b92915050565b600060208284031215614f6d57614f6c61418e565b5b6000614f7b84828501614f42565b91505092915050565b7f4e6f74206f776e65720000000000000000000000000000000000000000000000600082015250565b6000614fba6009836142e9565b9150614fc582614f84565b602082019050919050565b60006020820190508181036000830152614fe981614fad565b9050919050565b600080fd5b82818337505050565b600061500a8385614840565b93507f07ffffffffffffffffffffffffffffffffffffffffffffffffffffffffffffff83111561503d5761503c614ff0565b5b60208302925061504e838584614ff5565b82840190509392505050565b60006020820190508181036000830152615075818486614ffe565b90509392505050565b7f4e6f206f66666572696e677320666f756e640000000000000000000000000000600082015250565b60006150b46012836142e9565b91506150bf8261507e565b602082019050919050565b600060208201905081810360008301526150e3816150a7565b9050919050565b7f4e487b7100000000000000000000000000000000000000000000000000000000600052601160045260246000fd5b600061512482614390565b91507fffffffffffffffffffffffffffffffffffffffffffffffffffffffffffffffff8203615156576151556150ea565b5b600182019050919050565b600061516c82614390565b915061517783614390565b925082820261518581614390565b9150828204841483151761519c5761519b6150ea565b5b5092915050565b7f4e487b7100000000000000000000000000000000000000000000000000000000600052604160045260246000fd5b7f4e487b7100000000000000000000000000000000000000000000000000000000600052601260045260246000fd5b600061520c82614390565b915061521783614390565b925082615227576152266151d2565b5b828204905092915050565b600060408201905061524760008301856144cb565b61525460208301846144cb565b9392505050565b6000608082019050615270600083018761467c565b61527d6020830186614522565b61528a60408301856144cb565b61529760608301846144cb565b95945050505050565b600060c0820190506152b5600083018961467c565b6152c26020830188614522565b6152cf6040830187614522565b6152dc60608301866144cb565b6152e960808301856144cb565b6152f660a08301846144cb565b979650505050505050565b60006040820190506153166000830185614522565b6153236020830184614522565b9392505050565b600061533582614bc9565b915061534083614bc9565b9250828201905079ffffffffffffffffffffffffffffffffffffffffffffffffffff811115615372576153716150ea565b5b92915050565b600061538382614bc9565b915061538e83614bc9565b9250828203905079ffffffffffffffffffffffffffffffffffffffffffffffffffff8111156153c0576153bf6150ea565b5b92915050565b60006060820190506153db6000830186614522565b6153e860208301856144cb565b6153f560408301846144cb565b949350505050565b600061540882614390565b915061541383614390565b925082820390508181111561542b5761542a6150ea565b5b92915050565b7f4e487b7100000000000000000000000000000000000000000000000000000000600052603160045260246000fd5b600060408201905061547560008301856144cb565b6154826020830184614989565b9392505050565b600061549482614390565b915061549f83614390565b92508282019050808211156154b7576154b66150ea565b5b92915050565b60006040820190506154d26000830185614522565b6154df602083018461467c565b9392505050565b600060a0820190506154fb600083018861467c565b615508602083018761467c565b615515604083018661467c565b61552260608301856144cb565b61552f6080830184614522565b9695505050505050565b6000819050919050565b600061555e61555961555484615539565b61454c565b614789565b9050919050565b61556e81615543565b82525050565b60006040820190506155896000830185615565565b61559660208301846144cb565b9392505050565b6000819050919050565b60006155c26155bd6155b88461559d565b61454c565b614789565b9050919050565b6155d2816155a7565b82525050565b60006040820190506155ed60008301856155c9565b6155fa60208301846144cb565b9392505050565b6000608082019050615616600083018761467c565b6156236020830186614796565b615630604083018561467c565b61563d606083018461467c565b95945050505050565b7f4e487b7100000000000000000000000000000000000000000000000000000000600052602160045260246000fd5b6000819050919050565b600061569a61569561569084615675565b61454c565b614789565b9050919050565b6156aa8161567f565b82525050565b60006040820190506156c560008301856156a1565b6156d260208301846144cb565b939250505056fea2646970667358221220e05bac3147caef3acc4c408f26bc98e512cff05f17427ac970d1bd89b6734be164736f6c634300081c0033",
  "devdoc": {
    "details": "ERC20Token is an ERC20 token with additional features such as burning, pausing, and minting, along with AccessControl and Permit functionalities. ",
    "errors": {
      "AccessControlBadConfirmation()": [
        {
          "details": "The caller of a function is not the expected one. NOTE: Don't confuse with {AccessControlUnauthorizedAccount}."
        }
      ],
      "AccessControlUnauthorizedAccount(address,bytes32)": [
        {
          "details": "The `account` is missing a role."
        }
      ],
      "CheckpointUnorderedInsertion()": [
        {
          "details": "A value was attempted to be inserted on a past checkpoint."
        }
      ],
      "ECDSAInvalidSignature()": [
        {
          "details": "The signature derives the `address(0)`."
        }
      ],
      "ECDSAInvalidSignatureLength(uint256)": [
        {
          "details": "The signature has an invalid length."
        }
      ],
      "ECDSAInvalidSignatureS(bytes32)": [
        {
          "details": "The signature has an S value that is in the upper half order."
        }
      ],
      "ERC20ExceededSafeSupply(uint256,uint256)": [
        {
          "details": "Total supply cap has been exceeded, introducing a risk of votes overflowing."
        }
      ],
      "ERC20InsufficientAllowance(address,uint256,uint256)": [
        {
          "details": "Indicates a failure with the `spender`s `allowance`. Used in transfers.",
          "params": {
            "allowance": "Amount of tokens a `spender` is allowed to operate with.",
            "needed": "Minimum amount required to perform a transfer.",
            "spender": "Address that may be allowed to operate on tokens without being their owner."
          }
        }
      ],
      "ERC20InsufficientBalance(address,uint256,uint256)": [
        {
          "details": "Indicates an error related to the current `balance` of a `sender`. Used in transfers.",
          "params": {
            "balance": "Current balance for the interacting account.",
            "needed": "Minimum amount required to perform a transfer.",
            "sender": "Address whose tokens are being transferred."
          }
        }
      ],
      "ERC20InvalidApprover(address)": [
        {
          "details": "Indicates a failure with the `approver` of a token to be approved. Used in approvals.",
          "params": {
            "approver": "Address initiating an approval operation."
          }
        }
      ],
      "ERC20InvalidReceiver(address)": [
        {
          "details": "Indicates a failure with the token `receiver`. Used in transfers.",
          "params": {
            "receiver": "Address to which tokens are being transferred."
          }
        }
      ],
      "ERC20InvalidSender(address)": [
        {
          "details": "Indicates a failure with the token `sender`. Used in transfers.",
          "params": {
            "sender": "Address whose tokens are being transferred."
          }
        }
      ],
      "ERC20InvalidSpender(address)": [
        {
          "details": "Indicates a failure with the `spender` to be approved. Used in approvals.",
          "params": {
            "spender": "Address that may be allowed to operate on tokens without being their owner."
          }
        }
      ],
      "ERC2612ExpiredSignature(uint256)": [
        {
          "details": "Permit deadline has expired."
        }
      ],
      "ERC2612InvalidSigner(address,address)": [
        {
          "details": "Mismatched signature."
        }
      ],
      "ERC5805FutureLookup(uint256,uint48)": [
        {
          "details": "Lookup to future votes is not available."
        }
      ],
      "ERC6372InconsistentClock()": [
        {
          "details": "The clock was incorrectly modified."
        }
      ],
      "InvalidAccountNonce(address,uint256)": [
        {
          "details": "The nonce used for an `account` is not the expected current nonce."
        }
      ],
      "SafeCastOverflowedUintDowncast(uint8,uint256)": [
        {
          "details": "Value doesn't fit in an uint of `bits` size."
        }
      ],
      "VotesExpiredSignature(uint256)": [
        {
          "details": "The signature used has expired."
        }
      ]
    },
    "events": {
      "Approval(address,address,uint256)": {
        "details": "Emitted when the allowance of a `spender` for an `owner` is set by a call to {approve}. `value` is the new allowance."
      },
      "DelegateChanged(address,address,address)": {
        "details": "Emitted when an account changes their delegate."
      },
      "DelegateVotesChanged(address,uint256,uint256)": {
        "details": "Emitted when a token transfer or delegate change results in changes to a delegate's number of voting units."
      },
      "EIP712DomainChanged()": {
        "details": "MAY be emitted to signal that the domain could have changed."
      },
      "RoleAdminChanged(bytes32,bytes32,bytes32)": {
        "details": "Emitted when `newAdminRole` is set as ``role``'s admin role, replacing `previousAdminRole` `DEFAULT_ADMIN_ROLE` is the starting admin for all roles, despite {RoleAdminChanged} not being emitted signaling this."
      },
      "RoleGranted(bytes32,address,address)": {
        "details": "Emitted when `account` is granted `role`. `sender` is the account that originated the contract call. This account bears the admin role (for the granted role). Expected in cases where the role was granted using the internal {AccessControl-_grantRole}."
      },
      "RoleRevoked(bytes32,address,address)": {
        "details": "Emitted when `account` is revoked `role`. `sender` is the account that originated the contract call:   - if using `revokeRole`, it is the admin role bearer   - if using `renounceRole`, it is the role bearer (i.e. `account`)"
      },
      "Transfer(address,address,uint256)": {
        "details": "Emitted when `value` tokens are moved from one account (`from`) to another (`to`). Note that `value` may be zero."
      }
    },
    "kind": "dev",
    "methods": {
      "CLOCK_MODE()": {
        "details": "Machine-readable description of the clock as specified in ERC-6372."
      },
      "DOMAIN_SEPARATOR()": {
        "details": "Returns the domain separator used in the encoding of the signature for {permit}, as defined by {EIP712}."
      },
      "allowance(address,address)": {
        "details": "See {IERC20-allowance}."
      },
      "approve(address,uint256)": {
        "details": "See {IERC20-approve}. NOTE: If `value` is the maximum `uint256`, the allowance is not updated on `transferFrom`. This is semantically equivalent to an infinite approval. Requirements: - `spender` cannot be the zero address."
      },
      "balanceOf(address)": {
        "details": "See {IERC20-balanceOf}."
      },
      "burn(uint256)": {
        "details": "Destroys a `value` amount of tokens from the caller. See {ERC20-_burn}."
      },
      "burnFrom(address,uint256)": {
        "details": "Destroys a `value` amount of tokens from `account`, deducting from the caller's allowance. See {ERC20-_burn} and {ERC20-allowance}. Requirements: - the caller must have allowance for ``accounts``'s tokens of at least `value`."
      },
      "checkpoints(address,uint32)": {
        "details": "Get the `pos`-th checkpoint for `account`."
      },
      "claimAirdrop(uint256,bytes32[])": {
        "params": {
          "amount": "Amount of tokens to claim",
          "merkleProof": "Array of hashes forming the merkle proof"
        }
      },
      "clock()": {
        "details": "Clock used for flagging checkpoints. Can be overridden to implement timestamp based checkpoints (and voting), in which case {CLOCK_MODE} should be overridden as well to match."
      },
      "constructor": {
        "details": "Initializes the ERC20Token contract.",
        "params": {
          "_name": "The name of the token.",
          "_symbol": "The symbol of the token.",
          "defaultAdmin": "The default admin role holder.",
          "nftContract": "The address of the NFT contract."
        }
      },
      "decimals()": {
        "details": "Returns the number of decimals used to get its user representation. For example, if `decimals` equals `2`, a balance of `505` tokens should be displayed to a user as `5.05` (`505 / 10 ** 2`). Tokens usually opt for a value of 18, imitating the relationship between Ether and Wei. This is the default value returned by this function, unless it's overridden. NOTE: This information is only used for _display_ purposes: it in no way affects any of the arithmetic of the contract, including {IERC20-balanceOf} and {IERC20-transfer}."
      },
      "delegate(address)": {
        "details": "Delegates votes from the sender to `delegatee`."
      },
      "delegateBySig(address,uint256,uint256,uint8,bytes32,bytes32)": {
        "details": "Delegates votes from signer to `delegatee`."
      },
      "delegates(address)": {
        "details": "Returns the delegate that `account` has chosen."
      },
      "eip712Domain()": {
        "details": "See {IERC-5267}."
      },
      "getPastTotalSupply(uint256)": {
        "details": "Returns the total supply of votes available at a specific moment in the past. If the `clock()` is configured to use block numbers, this will return the value at the end of the corresponding block. NOTE: This value is the sum of all available votes, which is not necessarily the sum of all delegated votes. Votes that have not been delegated are still part of total supply, even though they would not participate in a vote. Requirements: - `timepoint` must be in the past. If operating using block numbers, the block must be already mined."
      },
      "getPastVotes(address,uint256)": {
        "details": "Returns the amount of votes that `account` had at a specific moment in the past. If the `clock()` is configured to use block numbers, this will return the value at the end of the corresponding block. Requirements: - `timepoint` must be in the past. If operating using block numbers, the block must be already mined."
      },
      "getRoleAdmin(bytes32)": {
        "details": "Returns the admin role that controls `role`. See {grantRole} and {revokeRole}. To change a role's admin, use {_setRoleAdmin}."
      },
      "getVotes(address)": {
        "details": "Returns the current amount of votes that `account` has."
      },
      "grantRole(bytes32,address)": {
        "details": "Grants `role` to `account`. If `account` had not been already granted `role`, emits a {RoleGranted} event. Requirements: - the caller must have ``role``'s admin role. May emit a {RoleGranted} event."
      },
      "hasRole(bytes32,address)": {
        "details": "Returns `true` if `account` has been granted `role`."
      },
      "initializeDAO(address)": {
        "params": {
          "daoAddress": "The address of the DAO treasury"
        }
      },
      "initializeYAYFarm(address)": {
        "params": {
          "yayFarmAddress": "The address of the YAYFarm contract"
        }
      },
      "name()": {
        "details": "Returns the name of the token."
      },
      "nonces(address)": {
        "params": {
          "owner": "The address of the owner for which the nonce is retrieved."
        },
        "returns": {
          "_0": "The nonce for the given owner."
        }
      },
      "numCheckpoints(address)": {
        "details": "Get number of checkpoints for `account`."
      },
      "permit(address,address,uint256,uint256,uint8,bytes32,bytes32)": {
        "details": "Sets `value` as the allowance of `spender` over ``owner``'s tokens, given ``owner``'s signed approval. IMPORTANT: The same issues {IERC20-approve} has related to transaction ordering also apply here. Emits an {Approval} event. Requirements: - `spender` cannot be the zero address. - `deadline` must be a timestamp in the future. - `v`, `r` and `s` must be a valid `secp256k1` signature from `owner` over the EIP712-formatted function arguments. - the signature must use ``owner``'s current nonce (see {nonces}). For more information on the signature format, see the https://eips.ethereum.org/EIPS/eip-2612#specification[relevant EIP section]. CAUTION: See Security Considerations above."
      },
      "placeOnAltar(uint256[])": {
        "params": {
          "tokenIds": "Array of token IDs to place on altar (max 8)"
        }
      },
      "renounceRole(bytes32,address)": {
        "details": "Revokes `role` from the calling account. Roles are often managed via {grantRole} and {revokeRole}: this function's purpose is to provide a mechanism for accounts to lose their privileges if they are compromised (such as when a trusted device is misplaced). If the calling account had been revoked `role`, emits a {RoleRevoked} event. Requirements: - the caller must be `callerConfirmation`. May emit a {RoleRevoked} event."
      },
      "revokeRole(bytes32,address)": {
        "details": "Revokes `role` from `account`. If `account` had been granted `role`, emits a {RoleRevoked} event. Requirements: - the caller must have ``role``'s admin role. May emit a {RoleRevoked} event."
      },
      "setMerkleRoot(bytes32)": {
        "params": {
          "_merkleRoot": "The merkle root hash"
        }
      },
      "supportsInterface(bytes4)": {
        "details": "See {IERC165-supportsInterface}."
      },
      "symbol()": {
        "details": "Returns the symbol of the token, usually a shorter version of the name."
      },
      "totalSupply()": {
        "details": "See {IERC20-totalSupply}."
      },
      "transfer(address,uint256)": {
        "details": "See {IERC20-transfer}. Requirements: - `to` cannot be the zero address. - the caller must have a balance of at least `value`."
      },
      "transferAdminControl(address)": {
        "details": "Can only be called by the current admin",
        "params": {
          "timelock": "The address of the timelock controller"
        }
      },
      "transferFrom(address,address,uint256)": {
        "details": "See {IERC20-transferFrom}. Skips emitting an {Approval} event indicating an allowance update. This is not required by the ERC. See {xref-ERC20-_approve-address-address-uint256-bool-}[_approve]. NOTE: Does not update the allowance if the current allowance is the maximum `uint256`. Requirements: - `from` and `to` cannot be the zero address. - `from` must have a balance of at least `value`. - the caller must have allowance for ``from``'s tokens of at least `value`."
      }
    },
    "title": "ERC20Token",
    "version": 1
  },
  "userdoc": {
    "kind": "user",
    "methods": {
      "calculateBurnRewards()": {
        "notice": "Claim YAY tokens for burned NFTs"
      },
      "claimAirdrop(uint256,bytes32[])": {
        "notice": "Claim airdrop tokens based on merkle proof"
      },
      "claimYAYForBurnedNFTs()": {
        "notice": "Claim YAY tokens for burned NFTs"
      },
      "initializeDAO(address)": {
        "notice": "Initializes the DAO with its token allocation for protocol-owned liquidity"
      },
      "initializeYAYFarm(address)": {
        "notice": "Initializes the YAYFarm with its token allocation"
      },
      "nonces(address)": {
        "notice": "Retrieves the nonce for a particular owner."
      },
      "placeOnAltar(uint256[])": {
        "notice": "Place NFTs on the altar for future burning"
      },
      "setMerkleRoot(bytes32)": {
        "notice": "Sets the merkle root for airdrop verification"
      },
      "transferAdminControl(address)": {
        "notice": "Transfers admin control to the timelock controller"
      }
    },
    "notice": "Setup Process: 1. Call initializeYAYFarm() to allocate 10,000 tokens to YAYFarm contract 2. Call initializeDAO() to allocate 10,000 tokens to DAO treasury 3. Call setMerkleRoot() with airdrop merkle root 4. Call transferAdminControl() to transfer ownership to timelock controller",
    "version": 1
  },
  "storageLayout": {
    "storage": [
      {
        "astId": 1215,
        "contract": "contracts/ERC20Token.sol:ERC20Token",
        "label": "_balances",
        "offset": 0,
        "slot": "0",
        "type": "t_mapping(t_address,t_uint256)"
      },
      {
        "astId": 1221,
        "contract": "contracts/ERC20Token.sol:ERC20Token",
        "label": "_allowances",
        "offset": 0,
        "slot": "1",
        "type": "t_mapping(t_address,t_mapping(t_address,t_uint256))"
      },
      {
        "astId": 1223,
        "contract": "contracts/ERC20Token.sol:ERC20Token",
        "label": "_totalSupply",
        "offset": 0,
        "slot": "2",
        "type": "t_uint256"
      },
      {
        "astId": 1225,
        "contract": "contracts/ERC20Token.sol:ERC20Token",
        "label": "_name",
        "offset": 0,
        "slot": "3",
        "type": "t_string_storage"
      },
      {
        "astId": 1227,
        "contract": "contracts/ERC20Token.sol:ERC20Token",
        "label": "_symbol",
        "offset": 0,
        "slot": "4",
        "type": "t_string_storage"
      },
      {
        "astId": 26,
        "contract": "contracts/ERC20Token.sol:ERC20Token",
        "label": "_roles",
        "offset": 0,
        "slot": "5",
        "type": "t_mapping(t_bytes32,t_struct(RoleData)21_storage)"
      },
      {
        "astId": 5481,
        "contract": "contracts/ERC20Token.sol:ERC20Token",
        "label": "_nameFallback",
        "offset": 0,
        "slot": "6",
        "type": "t_string_storage"
      },
      {
        "astId": 5483,
        "contract": "contracts/ERC20Token.sol:ERC20Token",
        "label": "_versionFallback",
        "offset": 0,
        "slot": "7",
        "type": "t_string_storage"
      },
      {
        "astId": 3449,
        "contract": "contracts/ERC20Token.sol:ERC20Token",
        "label": "_nonces",
        "offset": 0,
        "slot": "8",
        "type": "t_mapping(t_address,t_uint256)"
      },
      {
        "astId": 501,
        "contract": "contracts/ERC20Token.sol:ERC20Token",
        "label": "_delegatee",
        "offset": 0,
        "slot": "9",
        "type": "t_mapping(t_address,t_address)"
      },
      {
        "astId": 506,
        "contract": "contracts/ERC20Token.sol:ERC20Token",
        "label": "_delegateCheckpoints",
        "offset": 0,
        "slot": "10",
        "type": "t_mapping(t_address,t_struct(Trace208)10946_storage)"
      },
      {
        "astId": 509,
        "contract": "contracts/ERC20Token.sol:ERC20Token",
        "label": "_totalCheckpoints",
        "offset": 0,
        "slot": "11",
        "type": "t_struct(Trace208)10946_storage"
      },
      {
        "astId": 12310,
        "contract": "contracts/ERC20Token.sol:ERC20Token",
        "label": "altarOfferings",
        "offset": 0,
        "slot": "12",
        "type": "t_mapping(t_address,t_array(t_uint256)dyn_storage)"
      },
      {
        "astId": 12314,
        "contract": "contracts/ERC20Token.sol:ERC20Token",
        "label": "tokenIdToAltarAddress",
        "offset": 0,
        "slot": "13",
        "type": "t_mapping(t_uint256,t_address)"
      },
      {
        "astId": 12316,
        "contract": "contracts/ERC20Token.sol:ERC20Token",
        "label": "merkleRoot",
        "offset": 0,
        "slot": "14",
        "type": "t_bytes32"
      },
      {
        "astId": 12320,
        "contract": "contracts/ERC20Token.sol:ERC20Token",
        "label": "hasClaimedAirdrop",
        "offset": 0,
        "slot": "15",
        "type": "t_mapping(t_address,t_bool)"
      }
    ],
    "types": {
      "t_address": {
        "encoding": "inplace",
        "label": "address",
        "numberOfBytes": "20"
      },
      "t_array(t_struct(Checkpoint208)10951_storage)dyn_storage": {
        "base": "t_struct(Checkpoint208)10951_storage",
        "encoding": "dynamic_array",
        "label": "struct Checkpoints.Checkpoint208[]",
        "numberOfBytes": "32"
      },
      "t_array(t_uint256)dyn_storage": {
        "base": "t_uint256",
        "encoding": "dynamic_array",
        "label": "uint256[]",
        "numberOfBytes": "32"
      },
      "t_bool": {
        "encoding": "inplace",
        "label": "bool",
        "numberOfBytes": "1"
      },
      "t_bytes32": {
        "encoding": "inplace",
        "label": "bytes32",
        "numberOfBytes": "32"
      },
      "t_mapping(t_address,t_address)": {
        "encoding": "mapping",
        "key": "t_address",
        "label": "mapping(address => address)",
        "numberOfBytes": "32",
        "value": "t_address"
      },
      "t_mapping(t_address,t_array(t_uint256)dyn_storage)": {
        "encoding": "mapping",
        "key": "t_address",
        "label": "mapping(address => uint256[])",
        "numberOfBytes": "32",
        "value": "t_array(t_uint256)dyn_storage"
      },
      "t_mapping(t_address,t_bool)": {
        "encoding": "mapping",
        "key": "t_address",
        "label": "mapping(address => bool)",
        "numberOfBytes": "32",
        "value": "t_bool"
      },
      "t_mapping(t_address,t_mapping(t_address,t_uint256))": {
        "encoding": "mapping",
        "key": "t_address",
        "label": "mapping(address => mapping(address => uint256))",
        "numberOfBytes": "32",
        "value": "t_mapping(t_address,t_uint256)"
      },
      "t_mapping(t_address,t_struct(Trace208)10946_storage)": {
        "encoding": "mapping",
        "key": "t_address",
        "label": "mapping(address => struct Checkpoints.Trace208)",
        "numberOfBytes": "32",
        "value": "t_struct(Trace208)10946_storage"
      },
      "t_mapping(t_address,t_uint256)": {
        "encoding": "mapping",
        "key": "t_address",
        "label": "mapping(address => uint256)",
        "numberOfBytes": "32",
        "value": "t_uint256"
      },
      "t_mapping(t_bytes32,t_struct(RoleData)21_storage)": {
        "encoding": "mapping",
        "key": "t_bytes32",
        "label": "mapping(bytes32 => struct AccessControl.RoleData)",
        "numberOfBytes": "32",
        "value": "t_struct(RoleData)21_storage"
      },
      "t_mapping(t_uint256,t_address)": {
        "encoding": "mapping",
        "key": "t_uint256",
        "label": "mapping(uint256 => address)",
        "numberOfBytes": "32",
        "value": "t_address"
      },
      "t_string_storage": {
        "encoding": "bytes",
        "label": "string",
        "numberOfBytes": "32"
      },
      "t_struct(Checkpoint208)10951_storage": {
        "encoding": "inplace",
        "label": "struct Checkpoints.Checkpoint208",
        "members": [
          {
            "astId": 10948,
            "contract": "contracts/ERC20Token.sol:ERC20Token",
            "label": "_key",
            "offset": 0,
            "slot": "0",
            "type": "t_uint48"
          },
          {
            "astId": 10950,
            "contract": "contracts/ERC20Token.sol:ERC20Token",
            "label": "_value",
            "offset": 6,
            "slot": "0",
            "type": "t_uint208"
          }
        ],
        "numberOfBytes": "32"
      },
      "t_struct(RoleData)21_storage": {
        "encoding": "inplace",
        "label": "struct AccessControl.RoleData",
        "members": [
          {
            "astId": 18,
            "contract": "contracts/ERC20Token.sol:ERC20Token",
            "label": "hasRole",
            "offset": 0,
            "slot": "0",
            "type": "t_mapping(t_address,t_bool)"
          },
          {
            "astId": 20,
            "contract": "contracts/ERC20Token.sol:ERC20Token",
            "label": "adminRole",
            "offset": 0,
            "slot": "1",
            "type": "t_bytes32"
          }
        ],
        "numberOfBytes": "64"
      },
      "t_struct(Trace208)10946_storage": {
        "encoding": "inplace",
        "label": "struct Checkpoints.Trace208",
        "members": [
          {
            "astId": 10945,
            "contract": "contracts/ERC20Token.sol:ERC20Token",
            "label": "_checkpoints",
            "offset": 0,
            "slot": "0",
            "type": "t_array(t_struct(Checkpoint208)10951_storage)dyn_storage"
          }
        ],
        "numberOfBytes": "32"
      },
      "t_uint208": {
        "encoding": "inplace",
        "label": "uint208",
        "numberOfBytes": "26"
      },
      "t_uint256": {
        "encoding": "inplace",
        "label": "uint256",
        "numberOfBytes": "32"
      },
      "t_uint48": {
        "encoding": "inplace",
        "label": "uint48",
        "numberOfBytes": "6"
      }
    }
  }
}